:020000040000FA
:100000000C94E3020C9414030C9414030C94140346
:100010000C9414030C9414030C9414030C94140304
:100020000C9414030C9414030C9414030C941403F4
:100030000C9414030C9414030C9414030C941403E4
:100040000C9414030C94E32D0C9414030C941403DB
:100050000C9414030C9414030C9414030C94642B4C
:100060000C9414030C94D82B0C94AE2B0C94140306
:100070000C9414030C9414030C9414030C941403A4
:100080000C94B52D0C9414030C9414030C940E2CA6
:100090000C9414030C9414030C9414030C94392C36
:1000A0000C9414030C9414030C94872D0C941403D7
:1000B0000C9414030C9414030C9414030C94592DF5
:1000C0000C9414030C9414030C9414030C94140354
:1000D0000C9414030C9414030C9414030C94140344
:1000E0000C9414030C94840A0C94190A0C94112691
:1000F0000C94F8060C942F0A0C946D0A0C94C60FFD
:100100000C94310D0C94F7060C94100F0C941029DC
:100110000C94F9350C94DD0F0C946B0F0C94EA0DD4
:100120000C9419090C9413090C943B0F0C94B60A07
:100130000C940D090C944A180C94C32E0C94E837B7
:100140000C94E30F0C9408130C94930A0C94710311
:100150000C9443160C945B2B0C94CA080C949A0ACA
:100160000C94090F0C9454370C947E060C94E709F8
:100170000C94ED170C94B50D0C94E00F0C944318EF
:100180000C9438070C94E0280C94EF350C94A80DCF
:100190000C942C070C9496080C945E260C94DB04AB
:1001A0000C944F030C9475030C9416030C94590390
:1001B0000C941A1F0C94EA040C9444050C943A0312
:1001C0000C940C050C94D5130C94E50F0C94100EA4
:1001D0000C94361D0C9471090C9415090C94C70FDE
:1001E0000C9491050C947F030C94C01E0C943B0D51
:1001F0000C9417090C9422370C9411090C944403A5
:100200000C94A10A0C94C6090C9410140C94CE0FF3
:100210000C94E3260C94B90F0C94790F0C9451377D
:100220000C9447070C94B70A0C94D41C0C943B070D
:100230000C940F090C94BB0F0C94EF140C94550301
:100240000C949B0D0C947A030C94B80D0C945F03E2
:100250000C94AF0A0C946A0D0C9440030C94DE27A6
:100260000C942E070C9419030C94C9060C94D40D0D
:100270000C9493290C941B090C94121D0C94D00619
:100280000C9448030C94FE040C9492090C947B0388
:100290000C94AE040C94D0290C94E8080C941239F8
:1002A0000C948C0A0C9461380C94A80A0C94670383
:1002B0000C9463030C944C030C94480D0C946D0344
:1002C000E0078307A60760074D61696E206D656EC4
:1002D00075007C0775076E076707536574757000B6
:1002E0003C4261636B0033003200416C65727420E4
:1002F00074657374009F07980791078A0754696DA6
:100300006573003C4261636B0033003200416C65F1
:100310007274207465737400D607CC07C507BB07D9
:10032000B407AD0744617461003C4261636B0045F2
:100330007261736520636F756E74657220320000A0
:10034000436F756E7465722032004572617365206B
:10035000636F756E74657220310000436F756E7443
:1003600065722031002000546F74616C00EE07E765
:100370000753686F74003C4261636B00416C6572A7
:100380007420746573740073757370656E6465644E
:100390002E2E2E0000002100240027002A002D0010
:1003A0003000330001010000040107010A010000D0
:1003B0002200250028002B002E003100340002010D
:1003C0000000050108010B010000200023002600A9
:1003D00029002C002F00320000010000030106015B
:1003E00009010505050507050808080802020202BB
:1003F0000A0A0808040404040101010101010101C1
:100400000303030303030303040707070C0C0C0C8B
:100410000C0C0C0C02020202060606060606060674
:100420000B0B0B0B0B0B0B0B010210202008081001
:100430002040102040800201020108040201010254
:10044000040810204080804020100804020180042D
:100450000201804020100804020108040201010288
:100460000408102040800102040810204080000091
:100470000A0B02090C0D0E0807030401000000001E
:10048000000000000000000000000000000000006C
:100490000000000000000000000012111000000029
:1004A000000000000000000000000000000000004C
:1004B000000000000000280A42070000140419038D
:1004C0000300C8020000010004C0024A180300DA59
:1004D00002FFFF000004D20238072000E002020001
:1004E00000004A180000E602FFFF00004A18000062
:1004F000E802FFFF00004A180000EA02FFFF0000C8
:100500004A180300FD02FFFF000004F5023807202F
:10051000000303020000004A1800000903FFFF0067
:10052000004A1800000B03FFFF00004A1800000DEE
:1005300003FFFF00004A1803002403FFFF0000062A
:100540001803380720002903020000005B2B00007D
:100550002F03000000001903060040030000000004
:100560003F03070200000000000000005B2B0000BA
:100570004A0300000000190306005B0300000000AE
:100580005A030502000000000000000019030600E5
:100590006703000000006503030200000000000084
:1005A00000004A1803007103FFFF0000026D0338CA
:1005B0000720007603020000004A1800007C03FFB9
:1005C000FF000000C32E11241FBECFEFD1E2DEBF1B
:1005D000CDBF00E00CBF14E0A0E0B2E0EEE1FEE72A
:1005E00000E00BBF02C007900D92AE3AB107D9F7F9
:1005F00029E0AEEAB4E001C01D92A836B207E1F7E7
:1006000012E0C3EED2E000E006C021970109802F7E
:10061000FE010E94C43CC23ED10780E00807A9F752
:100620000E94FB320C940D3F0C94000090E080E09F
:10063000089590E080E008958150823108F05AC01A
:10064000E82FF0E08827E85DFC4F8F4F0C94C43C06
:1006500048034C033A03400344037A034F03550312
:1006600059035F03630367036D0371037A03750323
:100670007B037F03809180008F77809380000895B3
:10068000809180008F7DF9CF80918000877FF5CFAA
:1006900084B58F7784BD089584B58F7DFBCF80911D
:1006A000B0008F778093B00008958091B0008F7D67
:1006B000F9CF809190008F7780939000089580917A
:1006C00090008F7DF9CF80919000877FF5CF80914A
:1006D000A0008F778093A00008958091A0008F7D67
:1006E000F9CF8091A000877FF5CF809120018F778F
:1006F000809320010895809120018F7DF9CF809112
:100700002001877FF5CFCF93DF93282F30E0F901C9
:10071000E259FB4F8491F901E85DFB4FD491F90157
:10072000EE51FC4FC491CC23A1F081110E941C0317
:10073000EC2FF0E0EE0FFF1FE853FC4FA591B491B2
:10074000EC91ED2381E090E009F480E0DF91CF911E
:10075000089580E090E0FACF1F93CF93DF93282F86
:1007600030E0F901E259FB4F8491F901E85DFB4F5C
:10077000D491F901EE51FC4FC491CC23A9F0162F6E
:1007800081110E941C03EC2FF0E0EE0FFF1FE255D9
:10079000FC4FA591B4918FB7F894EC91111108C05A
:1007A000D095DE23DC938FBFDF91CF911F91089509
:1007B000DE2BF8CFCF93DF9390E0FC01E85DFB4F99
:1007C00024918E519C4FFC0184918823C9F090E0C4
:1007D000880F991FFC01EC56FC4FA591B491FC01C8
:1007E000E255FC4FC591D49161110DC09FB7F894AB
:1007F0008C91209582238C938881282328839FBF06
:10080000DF91CF910895623051F49FB7F8943C91F5
:10081000822F809583238C93E8812E2BEFCF8FB787
:10082000F894EC912E2B2C938FBFEACF3FB7F8941E
:100830008091340590913505A0913605B09137052A
:1008400026B5A89B05C02F3F19F00196A11DB11D2B
:100850003FBFBA2FA92F982F8827BC01CD01620F67
:10086000711D811D911D42E0660F771F881F991F22
:100870004A95D1F708958F929F92AF92BF92CF92EF
:10088000DF92EF92FF924B015C010E9416046B0114
:100890007C010E9416046C197D098E099F09683E2F
:1008A000734081059105A8F321E0821A9108A108FF
:1008B000B10888EEC80E83E0D81EE11CF11C81143B
:1008C0009104A104B10429F7FF90EF90DF90CF903D
:1008D000BF90AF909F908F9008952FB7F89460913C
:1008E00030057091310580913205909133052FBF0D
:1008F00008950F931F93CF93DF93EC010E946D0433
:10090000688779878A879B87E881F9810484F585E0
:10091000E02DCE01199597FF15C00E946D04088542
:1009200019852A853B85601B710B820B930B0C810B
:100930001D812E813F81601771078207930720F385
:100940008FEF9FEFDF91CF911F910F910895DC0101
:10095000ED91FC910190F081E02D1994AF92BF923E
:10096000CF92DF92EF92FF920F931F93CF93DF937B
:100970006C017B018B01040F151FEB015E01AE18AA
:10098000BF08C017D10759F06991D601ED91FC91CC
:100990000190F081E02DC6011995892B79F7C501E9
:1009A000DF91CF911F910F91FF90EF90DF90CF904B
:1009B000BF90AF900895FC01538D448D252F30E0FA
:1009C000842F90E0821B930B541710F0CF9608955C
:1009D00001970895FC01918D828D981761F0A28D89
:1009E000AE0FBF2FB11D5D968C91928D9F5F9F734F
:1009F000928F90E008958FEF9FEF0895FC01918D05
:100A0000828D981731F0828DE80FF11D858D90E071
:100A100008958FEF9FEF0895FC01918D228D892F0E
:100A200090E0805C9F4F821B91098F7399270895F6
:100A30008AE395E00E940C0521E0892B09F420E06F
:100A4000822F0895FC01A48DA80FB92FB11DA35AC0
:100A5000BF4F2C91848D90E001968F739927848FDE
:100A6000A689B7892C93A089B1898C918370806401
:100A70008C93938D848D981306C00288F389E02DA2
:100A800080818F7D80830895EF92FF920F931F9353
:100A9000CF93DF93EC0181E0888F9B8D8C8D981331
:100AA0001AC0E889F989808185FF15C09FB7F8943D
:100AB000EE89FF896083E889F98980818370806489
:100AC00080839FBF81E090E0DF91CF911F910F91D4
:100AD000FF90EF900895F62E0B8D10E00F5F1F4FE3
:100AE0000F731127E02E8C8D8E110CC00FB607FCF2
:100AF000FACFE889F989808185FFF5CFCE010E9480
:100B00002205F1CFEB8DEC0FFD2FF11DE35AFF4FC6
:100B1000F0829FB7F8940B8FEA89FB89808180620D
:100B2000CFCFCF93DF93EC01888D8823B9F0AA89CA
:100B3000BB89E889F9898C9185FD03C0808186FD98
:100B40000DC00FB607FCF7CF8C9185FFF2CF8081E7
:100B500085FFEDCFCE010E942205E9CFDF91CF9135
:100B6000089580E090E0892B29F00E9418058111FA
:100B70000E94000080E090E0892B49F080E090E046
:100B8000892B29F00E94000081110E94000080E062
:100B900090E0892B49F080E090E0892B29F00E94B9
:100BA000000081110E94000080E090E0892B49F054
:100BB00080E090E0892B29F00E94000081110C94C4
:100BC00000000895FC01F8948481958120852230ED
:100BD000D1F49C01217033273583248378942085B8
:100BE0002430D1F495958795959587952385222373
:100BF000C1F021853285232F332797FF15C0C90106
:100C0000809590950895243021F49C01237033271A
:100C1000E3CF15821482E2CF223041F79595879574
:100C2000E5CF30E020E0E9CF009711F0C90101964F
:100C30000895DC01ED91FC910088F189E02D199473
:100C4000DC01ED91FC910190F081E02D1994FF926F
:100C50000F931F93CF93DF938C01EB01F42E642F3E
:100C6000DC0111968D919C910E941906DC0112966F
:100C7000ED91FC9113973696259134912C233D23C9
:100C8000232B71F0ED91FC910284F385E02D2F2D43
:100C9000A801BE01DF91CF911F910F91FF90199490
:100CA00090E080E0DF91CF911F910F91FF90089528
:100CB0000F931F93CF93DF938C01D0E0C0E0D80156
:100CC0008D919C911197C817D9079CF4CE01880F7C
:100CD000991F1296ED91FC91E80FF91F859194915F
:100CE000DC01ED91FC910684F785E02D19952196A4
:100CF000E6CFDF91CF911F910F9108955F926F9290
:100D00007F928F929F92AF92BF92CF92DF92EF929B
:100D1000FF920F931F93CF93DF93CDB7DEB76C0194
:100D2000F62E572E4A013901081519050CF1D60186
:100D3000ED91FC910288F389E02D20E0482D6F2D84
:100D4000C6011995AF2CB52C6A147B046CF0D60142
:100D5000ED91FC910190F081E02D6E2DC601199569
:100D6000BFEFAB1ABB0AF0CF8FEF881A980ADCCF1F
:100D7000C601DF91CF911F910F91FF90EF90DF900F
:100D8000CF90BF90AF909F908F907F906F905F902B
:100D90000895CF93DF93CDB7DEB7DF91CF9108955C
:100DA000EF92FF920F931F93CF93DF93EC01142FD9
:100DB0007901E881F9810488F589E02D64E070E02B
:100DC0001995E881F9810190F081E02D60E211230D
:100DD00031F06091E005EF2811F06091DF05CE0160
:100DE000DF91CF911F910F91FF90EF90199408958B
:100DF000BF92CF92DF92EF92FF920F931F93CF9308
:100E0000DF937C018B01B42EFB01C42E440FDD085F
:100E1000EF012196649161110EC0C01BD10B8C2F84
:100E20008150DF91CF911F910F91FF90EF90DF9054
:100E3000CF90BF900895BB2029F0E01BF10BEC157B
:100E4000FD055CF7D701ED91FC910190F081E02D5B
:100E5000C7011995FE01DCCF80E008950895DC01FB
:100E60001296ED91FC91329685919491817008953E
:100E700081E090E00895DC01CB01BA011296ED917A
:100E8000FC91139725913491AD01F9011994FC015E
:100E900086810895DC0117962C9117971496ED9191
:100EA000FC91B5E02B02E00DF11D112481819281AE
:100EB0000895CF93DF93EC010E944A072F81AC8104
:100EC000BD8135E02302A00DB11D1124EC01E881A4
:100ED000F9810088F189E02D6C91DF91CF9119940F
:100EE000DC011296ED91FC91329685919491969544
:100EF00087959695879581700895DC011296ED91FE
:100F0000FC913296859194916823792381E0672B37
:100F100009F480E008952091DD04260F3327331F64
:100F200021323105ECF420910105FC0190E080E0D4
:100F3000243069F082E00895A091DD042191AC0194
:100F400043545B4FA40FB52FB11D2C930196861708
:100F500098F38091DD04680F6093DD0480E00895CC
:100F600081E0089508958FEF9FEF08958FEF9FEF31
:100F700008958091B60490E0919581959109089526
:100F8000CF93DF93CB01EA01642F0E948B07CE0140
:100F9000DF91CF910895CF93DF931F92CDB7DEB746
:100FA000698361E0CE0101960E948B0781E090E0A9
:100FB0000F90DF91CF910895AF92BF92CF92DF92C1
:100FC000EF92FF920F931F93CF93DF936B017A0100
:100FD000EC01CE54DB4F28813CE0389F8001399FE3
:100FE000100D1124A090D808B12C27FF1FC0FB01C1
:100FF0001182108288818F5F888388819801280FF1
:10100000311D87FD3A95F6012A153B051CF48881B0
:101010008C30C4F180819181049680349C4908F41D
:1010200073C0F60180819181049670C08881980117
:10103000280F311D87FD3A952A153B05DCF688817E
:10104000A801480F511D87FD5A95FA01EE0FFF1FA9
:10105000E40FF51FE85BF74F808186FFCBCF8881D7
:10106000F801E80FF11D87FDFA95CF01EE0FFF1F84
:10107000E80FF91FE85BF74F808160E08F730E94F3
:10108000AC03B8CF808191812881A801420F511D06
:1010900027FD5A959A01FA01EE0FFF1FE20FF31F89
:1010A000E85BF74F21813281820F931FF701918313
:1010B000808388819801280F311D87FD3A95F901B9
:1010C000EE0FFF1FE20FF31FE85BF74F808186FFF3
:1010D00022C08881080F111D87FD1A95F801EE0FB7
:1010E000FF1FE00FF11FE85BF74F808161E08F7316
:1010F000DF91CF911F910F91FF90EF90DF90CF90F4
:10110000BF90AF900C94AC0380E49CE9F70191830D
:1011100080838FEF8883DF91CF911F910F91FF9094
:10112000EF90DF90CF90BF90AF900895CF93DF9373
:10113000FC012781222359F1EC0161E080850E94A6
:10114000DA0361E089850E94DA038F81843011F02F
:101150008830B1F461E08A850E94DA0361E08B8512
:101160000E94DA038FA58F3F91F061E00E94DA03BD
:101170006EA581E068278FA5DF91CF910C94AC0319
:10118000833011F0863071F761E08A85E9CFDF9115
:10119000CF910895CF93DF93FC0127812223A9F0FB
:1011A000EC010190F081E02D0284F385E02D60E0F8
:1011B00019958FA58F3F49F061E00E94DA036EA573
:1011C0008FA5DF91CF910C94AC03DF91CF9108955F
:1011D000DC01ED91FC9111972285338547705527ED
:1011E0006627772741505109610971094730510538
:1011F0006105710570F4FA018827EE5FF64F8F4F95
:101200000C94C43C0D090F0911091309150917099C
:10121000190961E0CD01F901199465E0FBCF64E0A3
:10122000F9CF66E0F7CF62E0F5CF6AE0F3CF68E090
:10123000F1CF69E0EFCFCF93DF93EC01CB01BA019F
:1012400026E030E040E050E00E94D43A6230710580
:101250008105910589F16CF4611571058105910590
:10126000D1F06130710581059105F9F0DF91CF91E1
:101270000895643071058105910561F124F16530AF
:1012800071058105910591F7E881F9810284F38563
:10129000E02D66E006C0E881F9810284F385E02D47
:1012A00064E0CE01DF91CF911994E881F981028445
:1012B000F385E02D65E0F5CFE881F9810284F385BF
:1012C000E02D61E0EECFE881F9810284F385E02D25
:1012D00063E0E7CFE881F9810284F385E02D62E0E5
:1012E000E0CFDC01ED91FC910284F385E02D4370A9
:1012F000552766277727423051056105710571F042
:10130000433051056105710559F0413051056105C2
:10131000710511F065E0199466E0FDCF6AE0FBCF3E
:1013200069E0F9CFCF93DF93EC01CB01BA0123E061
:1013300030E040E050E00E94D43A61307105810510
:10134000910599F06230710581059105A9F0672B2F
:10135000682B692BC1F4E881F9810284F385E02DC3
:1013600064E0CE01DF91CF911994E881F981028484
:10137000F385E02D61E0F5CFE881F9810284F38502
:10138000E02D62E0EECFDF91CF910895DC01ED9189
:10139000FC910284F385E02D43705527662777275B
:1013A000423051056105710571F043305105610509
:1013B000710559F0413051056105710511F062E088
:1013C000199463E0FDCF61E0FBCF60E0F9CFCF93EC
:1013D000DF93EC01E881F9810284F385E02D8A81B5
:1013E00060E0811162E0CE011995E881F981028403
:1013F000F385E02D8A8161E0811163E0CE011995CA
:101400008CA59DA58230910538F0880F991F880F13
:10141000991F05970197F1F7E881F9810284F38517
:10142000E02D8A8160E0811162E0CE01DF91CF91F1
:101430001994CF93DF93EC0120E030E0A901688D8F
:10144000798D8A8D9B8D0E94443C18162CF4E8A956
:10145000F9A9DF91CF911994EAA9FBA9FACFCF920C
:10146000DF92EF92FF920F931F93CF93DF93DC01F4
:101470001796CC91C43039F0C83059F1C33019F007
:10148000C63049F1C2E08C01085F1F4FF12CE12CFE
:10149000C62ED12CD1E0F8016481C6010E2C02C009
:1014A000959587950A94E2F780FD6D270F5F1F4F92
:1014B00080810E94AC03BFEFEB1AFB0AEC1658F3D5
:1014C000DF91CF911F910F91FF90EF90DF90CF9020
:1014D0000895C4E0D8CFC3E0D6CFDC011796EC91D5
:1014E0001797E93008F042C0F0E08827E558F54F3B
:1014F0008F4F0C94C43C840A8C0A930A9A0AA10A5E
:10150000B60AA80AB60AAF0AED91FC9111970684B3
:10151000F785E02DCD011994ED91FC91119700888C
:10152000F189E02DF7CFED91FC9111970288F389B5
:10153000E02DF0CFED91FC9111970488F589E02D15
:10154000E9CFED91FC9111970688F789E02DE2CF64
:10155000ED91FC911197008CF18DE02DDBCFED9199
:10156000FC911197028CF38DE02DD4CF08954F920A
:101570005F926F927F928F929F92AF92BF92CF9223
:10158000DF92EF92FF920F931F93CF93DF93EC01C3
:10159000CC88DD88EE88FF8888899989AA89BB89EB
:1015A000C81AD90AEA0AFB0A688D798D8A8D9B8D43
:1015B0009B01AC010E94E6394B015C0168A179A155
:1015C0008AA19BA19B01AC010E94303B9B01AC0115
:1015D000C501B4010E949C3B0E940E3CC114D10481
:1015E000E104F10409F0B6C062307105810591058E
:1015F0000CF0D0C01B821C821D821E82188E198E98
:101600001A8E1B8E1CAA1DAA1EAA1FAAC12CD12C81
:101610007601C701B601DF91CF911F910F91FF9025
:10162000EF90DF90CF90BF90AF909F908F907F9082
:101630006F905F904F9008951016110612061306D2
:10164000B4F46C157D058E059F051CF42A812111CB
:10165000A1C09B01AC0188279927DC01821B930B59
:10166000A40BB50B8CAB9DABAEABBFAB93C0011560
:1016700011052105310509F48DC06C157D058E0518
:101680009F050CF087C08A81882309F483C03095B8
:101690002095109501951F4F2F4F3F4F0CAB1DAB61
:1016A0002EAB3FAB77C0011511052105310509F4BB
:1016B00071C08824992454018C189D08AE08BF0875
:1016C000681579058A059B050CF064C08A81811133
:1016D00061C0DDCFCCACDDACEEACFFACA7019601B8
:1016E000C701B6010E94303B2B013C01C501B4018A
:1016F0000E94873920E030E040E850E40E94E6395B
:1017000020E030E040E85FE30E94303B9B01AC0109
:10171000C301B2010E949C3B9B01AC01C701B60111
:101720000E942F3B3B016C01FE01E05CFF4FE0801B
:10173000F180028113819701A8010E94443C181690
:1017400014F473018601C701D8018CAF9DAFAEAF11
:10175000BFAF3AC00CA91DA92EA93FA91C141D0496
:101760001E041F040CF468CF10161106120613068F
:101770000CF099CF0027112798010C191D092E098B
:101780003F0960177107820793070CF062CF2A8127
:1017900021115FCF8CA89DA8AEA8BFA88114910489
:1017A000A104B10409F096CF88AD99ADAAADBBAD47
:1017B0008CAF9DAFAEAFBFAF81E01C141D041E0403
:1017C0001F040CF080E08A833FEF831A930AA30A78
:1017D000B30A8CAA9DAAAEAABFAA8CAC9DACAEAC33
:1017E000BFACC501B4010E94153C6B017C01CB82EA
:1017F000DC82ED82FE82A501940160E074E284E760
:1018000099E40E949C3B688F798F8A8F9B8F2A81F5
:101810002111FFCE9058688F798F8A8F9B8FF9CED8
:10182000CF92DF92EF92FF92CF93DF93EC018B8107
:101830009C81AD81BE81892B8A2B8B2B99F10E94D3
:1018400016046B017C0188A599A5AAA5BBA5B701C3
:10185000A601481B590B6A0B7B0B8B819C81AD81C8
:10186000BE81481759076A077B07E0F08889998984
:10187000AA89BB892A812223B1F10196A11DB11D3C
:10188000888B998BAA8BBB8B488959896A897B89FC
:10189000CE010E946D0AC8A6D9A6EAA6FBA6CE0173
:1018A0000E94B70A20E030E0A901688D798D8A8D09
:1018B0009B8D0E94803981111AC081E0CC88DD881F
:1018C000EE88FF88488959896A897B89C416D506BC
:1018D000E606F70609F480E0DF91CF91FF90EF90E4
:1018E000DF90CF9008950197A109B109C9CF81E098
:1018F000F3CFCF92DF92EF92FF92CF93DF93EC0181
:10190000688D798D8A8D9B8D9B01AC010E94E63993
:101910006B017C0168A179A18AA19BA19B01AC010B
:101920000E94303B9B01AC01C701B6010E949C3B69
:101930000E940E3C6CAB7DAB8EAB9FABCE01DF91BA
:10194000CF91FF90EF90DF90CF900C94B70A0F9358
:101950001F93FC0104891589268937890417150707
:101960002607370741F0448B558B668B778B1F9189
:101970000F910C94B70A1F910F9108954F925F92A7
:101980006F927F928F929F92AF92BF92CF92DF928F
:10199000EF92FF92CF93DF93EC01488C598C6A8CC5
:1019A0007B8C20E030E0A901C301B2010E948039A4
:1019B000882309F447C0A3019201C301B2010E9428
:1019C000E6396B017C0168A179A18AA19BA19B01E9
:1019D000AC010E94303B9B01AC01C701B6010E94E3
:1019E0009C3B0E940E3C6B017C0188889988AA88E8
:1019F000BB8820E030E0A901C301B2010E94443C51
:101A0000B701A6011816CCF44F5F5F4F6F4F7F4FA1
:101A1000480D591D6A1D7B1DCE01DF91CF91FF90AE
:101A2000EF90DF90CF90BF90AF909F908F907F907E
:101A30006F905F904F900C94A70C409550956095D7
:101A40007095E6CFDF91CF91FF90EF90DF90CF9030
:101A5000BF90AF909F908F907F906F905F904F90CE
:101A60000895089529E2E2E0F2E0DC0101900D9290
:101A70002A95E1F70895DC011D96ED91FC91808196
:101A80009181DC01ED91FC910684F785E02D19949C
:101A9000CF93DF93EC01ED85FE8580819181DC01A0
:101AA000ED91FC910084F185E02D1995892B69F069
:101AB000ED85FE8580819181DC01ED91FC910484AE
:101AC000F585E02DDF91CF9119948FEF9FEFDF9196
:101AD000CF910895CF93DF93EC01ED85FE85808152
:101AE0009181DC01ED91FC910084F185E02D199547
:101AF000892BD9F0ED85FE8580819181DC01ED9106
:101B0000FC910284F385E02D19952091000230911B
:101B100001022817390761F02FEF3FEF30930102E0
:101B200020930002DF91CF9108958FEF9FEFEDCFCB
:101B30008FEF9FEFF7CFDC011D96ED91FC91808137
:101B40009181DC01ED91FC910084F185E02D1994E7
:101B5000DC011D96ED91FC9180819181DC01ED917C
:101B6000FC910680F781E02D199490E080E00895C3
:101B7000CF93DF93DC0116968C911697811111C0DB
:101B80001296ED91FC9113973C96C591D49181E00A
:101B900018964D915C91288139814217530709F4B9
:101BA00080E0DF91CF910895CF93DF93DC0116960B
:101BB0001C9216971296ED91FC9113973C96C59145
:101BC000D4918881998119969C938E931897DF916F
:101BD000CF9108950F931F93CF93DF93EC01E8818A
:101BE000F9810288F389E02D20E040E060E019955A
:101BF00007E813E0F8016491662359F0E881F98160
:101C00000190F081E02DCE0119950F5F1F4F892BB8
:101C100089F790E080E0DF91CF911F910F910895B7
:101C2000CF92DF92EF92FF920F931F93CF93DF93A8
:101C30000E946D046B017C0180912508882399F036
:101C40008091230890912408029790932408809310
:101C50002308809123089091240897FF04C01092D4
:101C600024081092230880911A080E94830320916F
:101C70001D08C3E02817190609F0C0E080911B0871
:101C80000E94830320911D082817190611F481E092
:101C9000C82780912008909121088C1B80FFA4C048
:101CA0000C2E000CDD0BD0932108C093200820914E
:101CB0001E0830911F088270082E000C990B0197A6
:101CC000820F931F90931F0880931E0881E09091CC
:101CD0002508992391F0882381F080912308909121
:101CE0002408883E9B4048F4809123089091240862
:101CF0004996909324088093230880911C08882398
:101D000009F469C040912C0850912D0860912E086B
:101D100070912F0897018601041B150B260B370BBA
:101D2000B901A8014A3051056105710508F453C095
:101D3000C0922C08D0922D08E0922E08F0922F0825
:101D40000E94830320911D082817190691F48091A1
:101D5000290890912A08019690932A0880932908CF
:101D60008937910530F083E090E0909327088093C5
:101D7000260880911C080E94830320911D0831E0F1
:101D8000232728171906C1F48091290890912A0861
:101D9000892B71F08091260890912708039731F5DF
:101DA00084E090E0909327088093260810922B08F7
:101DB00010922A081092290880912B08882359F044
:101DC000825080932B08811106C085E090E09093AB
:101DD000270880932608DF91CF911F910F91FF90E4
:101DE000EF90DF90CF90089580E071CF80912B0825
:101DF000823028F08C33E0F686E090E0D3CF8091FB
:101E00002808811104C081E080932B08D1CF8CE396
:101E1000FBCF70E0FC01718B608B81E090E0089556
:101E2000CF93DF93EC01E881F9810484F585E02DFF
:101E300019951D8A1C8AE091E105F091E205238540
:101E40002817190661F44F8528893989240F311D17
:101E500047FD3A95398B288BDF91CF9108952685E0
:101E600028171906C9F74F8528893989241B310994
:101E700047FD3395EFCFDC01ED91FC910484F585AE
:101E8000E02D199521E030E0019611F430E020E0DA
:101E9000C9010895CF93DF93EC018D859E850E9443
:101EA000E2052A893B89820F931F9B8B8A8B8C8941
:101EB0009D89892B69F4ED85FE858485958524852A
:101EC00035852330310511F0158614869D8B8C8B5A
:101ED000DF91CF910895CF93DF93EC011D8A1C8A87
:101EE0000E944A0F8A899B89998B888BDF91CF91B9
:101EF0000895CF93DF93EC010E944A0F8C899D894E
:101F00008530910549F4E091E105F091E205808585
:101F100090E0DF91CF910895069731F4E091E105CB
:101F2000F091E2058581F4CF1D8A1C8A2A893B89BC
:101F300088899989281B390B8F85082E000C990BED
:101F400044275527481B590B4217530734F0E0919B
:101F5000E105F091E2058685DBCF2817390734F0DB
:101F6000E091E105F091E2058385D2CF8FEF9FEFFD
:101F7000D0CF80E00895DC011D968D919C91DC010D
:101F8000ED91FC910190F081E02D19940895DC0110
:101F90001296ED91FC913A9684910895DC01129687
:101FA000ED91FC913B9685919491E62FEE0FFF0BFE
:101FB000E80FF91F85919491089590E080E00895CD
:101FC000FC011682089580E0089590E080E0089575
:101FD0008F929F92AF92BF92EF92FF920F931F93B7
:101FE000CF93DF93F82E61E08AE00E94AC038091EA
:101FF0006109803308F052C061E08BE00E94DA038F
:1020000080916109282F30E0F901EE0FFF1FE20FE8
:10201000F31FE85BF74F9081907C9B609083109258
:102020006209109263092CE0622F0E94A43C829FF7
:10203000B001112430E020E0AB01420F531FFA0140
:10204000EE0FFF1FE40FF51FE85BF74F908196FD41
:1020500017C02F5F3F4F2C30310571F7813009F0E9
:102060008EC01092800082E08093810010928500E3
:1020700010928400B19A80916F00826080936F000B
:10208000E09161098E2F90E0FC01EE0FFF1FE80F39
:10209000F91FE85BF74F808180648083E0906109DD
:1020A0008FE28E1508F44CC08091630908E512E0B8
:1020B000081B110987FD1395000F111F000F111F39
:1020C00080916209C8E8D0E0C81BD10987FDD3958B
:1020D000CC0FDD1FCC0FDD1F4E010D2E000CAA080A
:1020E000BB089801012E000C440B550B2819390927
:1020F0004A095B09AF2DB0E00E94F33A24EB30E0CF
:1021000040E050E00E94D43A820E931EA41EB51EF9
:102110008C169D062CF0E801801691060CF4E40163
:102120002297CC0FDD1F2FB7F894F12CF701EE0F9B
:10213000FF1FEE0DFF1DE85BF74FD283C1832FBF5A
:1021400068EE73E080E090E00E943B04E09161095A
:102150008E2F90E0FC01EE0FFF1FE80FF91FE85BE8
:10216000F74F80818F7B8083DF91CF911F910F91FB
:10217000FF90EF90BF90AF909F908F900895823026
:1021800061F410929000809391001092950010924B
:10219000940088BB8093710073CF833069F41092F0
:1021A000A00082E08093A1001092A5001092A400EC
:1021B00089BB8093720064CF811162CF109220019D
:1021C00082E08093210110922501109224018ABBA4
:1021D0008093730055CFAB01BC0189ED98E00E945C
:1021E000A70C4091ED085091EE086091EF087091B6
:1021F000F0088091E9089091EA08A091EB08B0916D
:10220000EC08481759076A077B0729F089ED98E021
:102210000E94100CE6CF0895AB01BC018DE199E05E
:102220000E94A70C40913109509132096091330905
:102230007091340980912D0990912E09A0912F0958
:10224000B0913009481759076A077B0729F08DE1DB
:1022500099E00E94100CE6CF0895EF92FF920F9341
:102260001F93CF93DF93E0901707F0901807E114C6
:10227000F104F9F000910B0710910C07D0E0C0E0D9
:10228000D8018D919C911197C817D90794F4129693
:10229000ED91FC91CE01880F991FE80FF91F8591F0
:1022A000949162E070E0F7011995019711F0219681
:1022B000E7CF10921807109217078BE097E00E9463
:1022C0004A0721E0DC0116962C9380910B07909130
:1022D0000C07DF91CF911F910F91FF90EF900C941D
:1022E0005806CF92DF92EF92FF920F931F93CF93F6
:1022F000DF931F921F92CDB7DEB769834A83880FA1
:10230000991F00913D0610913E06000F111FE7EE48
:10231000F5E09F01275E35402017310714F4119234
:10232000F8CF2981FC01E951FA4F21838A8180830A
:1023300060E080913B060E94AC031016110604F584
:1023400001501109F801E951FA4FE080D0903906A7
:10235000C090370688E0F82E6E2D661F6627661F30
:102360008C2D0E94AC03EE0C61E08D2D0E94AC031D
:1023700060E08D2D0E94AC03FA94F110EDCFDDCF1B
:1023800061E080913B060F900F90DF91CF911F91FC
:102390000F91FF90EF90DF90CF900C94AC03EF92F1
:1023A000FF920F931F93CF937C018C0183E0000F6A
:1023B000111F8A95E1F709501A4FC1E0F8011192F7
:1023C0008F0140E06C2FC7010E947111CF5FC930AF
:1023D000A9F7CF911F910F91FF90EF900895CF93A0
:1023E000DF93C1E0D0E080913D0690913E06181643
:1023F00019066CF4FE01ED59FD4F4081FE01E951D3
:10240000FA4F47876C2F90E080E00E94711121966F
:10241000C930D10541F7DF91CF9108950F931F93F4
:10242000CF93DF9398E0899F80011124D0E0C0E032
:1024300080913D0690913E061816190684F4F80125
:10244000EC0FFD1FEC5CFD4F4081FE01E951FA4F9E
:10245000408B6C2F6F5F90E080E00E94711121969D
:10246000C830D10529F7DF91CF911F910F910895C1
:10247000CF92DF92EF92FF920F931F930E946D0411
:102480000091AE041091AF042091B0043091B104DA
:102490006B017C01C01AD10AE20AF30A9701860196
:1024A000083E134021053105B0F06093AE047093EF
:1024B000AF048093B0049093B10480912B028111FA
:1024C000815080932B021F910F91FF90EF90DF902E
:1024D000CF900C940E121F910F91FF90EF90DF9010
:1024E000CF900895CF93DF93EC0160E08E810E943E
:1024F000AC0361E08E810E94AC0360E08E810E949B
:10250000AC038BE891E00197F1F7DF91CF9108954B
:10251000CF92DF92EF92FF920F931F93CF93DF93AF
:102520006C017C0187E0E80EF11CD0E0C0E0062FD2
:1025300010E0B8010C2E02C0759567950A94E2F779
:102540006170F70181917F010E94AC032196C43034
:10255000D10579F7C601DF91CF911F910F91FF90BF
:10256000EF90DF90CF900C947212CF92DF92EF92A7
:10257000FF920F931F93CF93DF93EC01F62E642FFE
:102580008C810E94AC038D818F3F19F060E00E9426
:10259000AC030F2D10E08F8584FF25C06E0187E00E
:1025A000C80ED11CF12CE12CB8010E2C02C075957F
:1025B00067950A94E2F76170F60181916F010E94BC
:1025C000AC03FFEFEF1AFF0A88E0E816F10461F7A9
:1025D000CE01DF91CF911F910F91FF90EF90DF908F
:1025E000CF900C947212B80184E0759567958A9526
:1025F000E1F7CE010E9488126F2DCE01DF91CF91BD
:102600001F910F91FF90EF90DF90CF900C94881264
:1026100041E00E94B51281E090E0089540E00C9402
:10262000B512CF93DF93613029F090913F08986005
:1026300090933F08609343081092440890E490936D
:10264000450880934608805C8093470861E080914C
:1026500034080E94DA03809135088F3F19F061E059
:102660000E94DA0361E0809136080E94DA03C0E339
:10267000D8E09E012053384080913F0884FD0BC074
:1026800084E090E021962817390744F461E08E81B8
:102690000E94DA03EECF88E090E0F4CF8BE39DE078
:1026A0000197F1F760E0809134080E94AC0360E08C
:1026B000809136080E94AC03809135088F3F19F055
:1026C00060E00E94AC0360913F0864FD41C063E09C
:1026D00080E398E00E948812CBE4D6E4CE01019713
:1026E000F1F763E080E398E00E9488122197F1F708
:1026F00063E080E398E00E94881283E592E001970E
:10270000F1F762E080E398E00E94881260913F0850
:10271000606280E398E00E940E1384E0809340089A
:102720006CE080E398E00E940E1361E080E398E0A3
:102730000E940E138BE39FE10197F1F782E08093F3
:10274000410866E080E398E0DF91CF910C940E138E
:10275000606280E398E00E940E138BE496E4019798
:10276000F1F760913F08606280E398E00E940E13E9
:1027700083E592E00197F1F760913F08606280E3A2
:1027800098E00E940E13C2CF443008F043E0FC01F1
:102790002389421710F04FEF420FFC01E40FF11DA7
:1027A0002489620F60680C940E13EF92FF920F93CE
:1027B0001F93CF93DF93EC01142FF22E8D859E850E
:1027C000FC0160896E7F608B68600E940E138D85AE
:1027D0009E85FC0160896D7F608B68600E940E138E
:1027E000002391F04F2D612F8D859E850E94C4138B
:1027F0008D859E85FC016089262FEE2069F0226080
:10280000208B6A600E940E1380E0DF91CF911F91B0
:102810000F91FF90EF9008952160208B6960F2CFB7
:10282000CF93DF93EC0161E08D859E850E940E13AE
:102830008BE39FE10197F1F7AE81BF8190E080E0EB
:1028400014962C911497022E000C330B82179307C9
:102850006CF49C01220F331F1296ED91FC9113979B
:10286000E20FF31F118210820196EACFDF91CF9120
:102870000895CF92DF92EF92FF920F931F93CF9321
:10288000DF93EC018B01888199810E9458061D8796
:102890000C87FF24F394F986CE010E944A07DC01DD
:1028A0001696FC920115110549F1E880F980D0E0F7
:1028B000C0E0F70180819181C817D907FCF402803C
:1028C000F381E02DCE01880F991FE80FF91FC59005
:1028D000D49070E060E0C601F8011995892B71F47D
:1028E000D60118968C9180FF02C02196E2CF61E05C
:1028F00070E0C601F80119950197B9F7DF91CF9102
:102900001F910F91FF90EF90DF90CF900895CF939C
:10291000DF93EC018E859F8521E0DC0116962C93D8
:102920000E942F079F81882309F440C0992369F1F1
:1029300091509F832C813D81F90145E09402E00D87
:10294000F11D1124CF01408164E070E00E94270650
:10295000CE010E944A0721E0FC012683CE010E949D
:102960004A079F878E87DC011296ED91FC91329683
:102970008591949184FF03C0CE010E94871461E089
:1029800070E08FEFDF91CF9108958989882301F35B
:102990008C819D81DC014C9164E070E00E942706EF
:1029A0006A857B85CE010E943914D2CF2C813D816E
:1029B000F90145E09402E00DF11D1124CF014081A1
:1029C00064E070E00E9427068A819B81DC01ED9122
:1029D000FC910684F785E02D60E01995B9CF0F933F
:1029E0001F93CF93DF93EC018B012330310509F462
:1029F00063C0F0F42130310511F12230310509F1C5
:102A00008E81882309F46AC0D8011396ED91FC9158
:102A1000828960E071E0811102C062E070E0F8013B
:102A20004081C801DF91CF911F910F910C9427062F
:102A30002430310509F44AC02730310509F781E017
:102A40008F838F81882321F11F8281E08E83E8812B
:102A5000F9810288F389E02DCE011995D8011396EA
:102A6000ED91FC91828960E071E0811102C062E029
:102A700070E0F8014081C8010E942706D801139632
:102A80008D919C91DF91CF911F910F910C948714A0
:102A9000D8011396ED91FC9180898111D5CFE88101
:102AA000F9810088F189E02DCE011995882361F222
:102AB00081E08F838E83A4CFE881F9810488F58932
:102AC000E02D61E070E0CE0119959ACFE881F9819F
:102AD0000488F589E02D6FEF7FEFF5CFDF91CF917F
:102AE0001F910F910895DF92EF92FF920F931F9322
:102AF000CF93DF93EC010E945907DC0114968D916E
:102B00009C91892B09F4B1C0CE010E9459078C0118
:102B1000DC01ED91FC91E084F184CE010E94590723
:102B20002F814C815D81B5E02B02400D511D112498
:102B30009C0161E070E0C801F7011995892B09F04B
:102B400094C0CE010E9459077C01DC011296ED91E0
:102B5000FC91329605911491027011270E942F0763
:102B6000D82E2F818C819D81B5E02B02800D911D87
:102B70001124FC01408162E070E00E94270600976A
:102B800009F063C0DD2009F473C0012B61F402E099
:102B900010E0B8018FEFDF91CF911F910F91FF905F
:102BA000EF90DF9008959F818E819817A4F5CE0154
:102BB0000E944A0711E0DC0116961C93CE010E9488
:102BC00059072F812F5F2F83EC81FD81B5E02B0208
:102BD000E00DF11D1124928381831082CE010E94A9
:102BE0004A07FC011683D701ED91FC910085118500
:102BF000CE010E9459072F814C815D81B5E02B02E7
:102C0000400D511D11249C0162E070E0C701F801E4
:102C1000199502E006C063E478E1CE010E94391400
:102C200000E010E0FF86EE8681E0D70116968C93D7
:102C3000D110AFCF8A819B81DC01ED91FC9106849C
:102C4000F785E02D61E01995A4CF019751F4CE01ED
:102C50000E9459070E942F07811103C0CE010E94D4
:102C60008714012B09F493CFD4CF60E070E092CFAA
:102C7000012B09F48CCFFF86EE8681E0F701868375
:102C800002E010E0D7CFDF92EF92FF920F931F93F5
:102C9000CF93DF93EB01790108812330310509F4EB
:102CA0007AC080F42130310509F4B9C022303105F1
:102CB00009F4C0C0DF91CF911F910F91FF90EF9069
:102CC000DF9008952430310509F483C0C9010797C6
:102CD000029780F7142F47FDEDCF89819A810E94DA
:102CE000200618173CF789819A81DC011296ED9134
:102CF000FC913296259134912C703327232B09F4C3
:102D0000A4C021E0FC01268349815A81DA01129690
:102D10008D919C91FC0136962591349127FF08C036
:102D2000FC0125913491BE0180E890E0F9011995EC
:102D3000402F60E270E0CE010E9427061883F7E082
:102D4000EF1AF10882E0E816F10420F48B819C81EF
:102D50000E947315412F60E170E0CE010E942706AA
:102D600049815A81DA0112968D919C91FC01369627
:102D70002591349126FF9ECFFC0125913491BE010F
:102D800080E490E0F901DF91CF911F910F91FF90C6
:102D9000EF90DF90199489819A810E942006882300
:102DA00009F488CF11E0100F89819A810E942006D2
:102DB000181764F089819A81DC011296ED91FC91DB
:102DC00038962591349120FF25C010E001138BCF58
:102DD00071CF89819A81011109C0DC011296ED91B0
:102DE000FC9132962591349124FD19C00E94200651
:102DF000882309F45FCF1FEF100F17FFE7CF8981FA
:102E00009A81DC011296ED91FC91389625913491CE
:102E100020FFDBCF0E9420061FEF180FD7CF8B813A
:102E20009C81DF91CF911F910F91FF90EF90DF90E8
:102E30000C9487148B819C81DF91CF911F910F910E
:102E4000FF90EF90DF900C947315602F0E9419068D
:102E5000DD24D394DC011696DC92612F89819A815E
:102E60000E941906FC01D6824FCFFB010190002081
:102E7000E9F73197AF01461B570BDC01ED91FC914F
:102E80000280F381E02D1994CF93DF93FC014481FC
:102E90005581608171818AE395E00E94AE04EC0166
:102EA0006CE573E08AE395E00E9435178C0F9D1F57
:102EB000DF91CF9108958F929F92AF92BF92EF9240
:102EC000FF920F931F93CF93DF93CDB7DEB7A197F8
:102ED0000FB6F894DEBF0FBECDBF7C01FA01CB0167
:102EE00019A2223008F42AE08E010F5D1F4F822EB6
:102EF000912CB12CA12CBF01A50194010E94FE3A96
:102F0000F901CA016A300CF5605DD8016E938D013C
:102F1000232B242B252B79F790E080E0109721F0CC
:102F2000BD01C7010E943517A1960FB6F894DEBF08
:102F30000FBECDBFDF91CF911F910F91FF90EF900A
:102F4000BF90AF909F908F900895695CDECFCF9235
:102F5000DF92EF92FF920F931F93CF93DF9377FF50
:102F60001DC06A017B01EC016DE20E94A7048C0187
:102F700044275527BA014C195D096E097F092AE0DB
:102F8000CE010E945B17800F911FDF91CF911F919F
:102F90000F91FF90EF90DF90CF9008952AE0DF919E
:102FA000CF911F910F91FF90EF90DF90CF900C94F5
:102FB0005B17CF93DF93AB01BC018AE395E00E94DE
:102FC000A717EC016CE573E08AE395E00E943517E2
:102FD0008C0F9D1FDF91CF9108959B01FC014085CF
:102FE0005185052E000C660B770BC9010E94A717AF
:102FF0000895CF93DF93AB01BC012AE08AE395E00B
:103000000E945B17EC016CE573E08AE395E00E9497
:1030100035178C0F9D1FDF91CF910895CF93DF93CC
:10302000BC018AE395E00E943517EC016CE573E082
:103030008AE395E00E9435178C0F9D1FDF91CF9199
:10304000089520913805309139052F5F3F4F309317
:103050003905209338054091E5055091E605411565
:10306000510519F04217530734F48FE593E00E949D
:103070000E1880E00895813092401CF081E893E0C2
:10308000F6CF81E008956BEA73E00E94351790E077
:1030900080E00895CF93DF93EC0168EE73E08AE35C
:1030A00095E00E943517AE01DD0F660B770B8AE3C2
:1030B00095E00E94A7176CE573E08AE395E00E9413
:1030C000351790E080E0DF91CF9108950E94ED3EAA
:1030D0000F931F93CF93DF93EC0188819981009721
:1030E00059F02A813B812617370730F081E0DF91C4
:1030F000CF911F910F9108958B016F5F7F4F0E94B9
:103100000C3E009759F0998388831B830A832C8196
:103110003D81232B59F7FC011082E8CF80E0E7CFF7
:10312000EF92FF920F931F93CF93DF936115710579
:1031300041F480E0DF91CF911F910F91FF90EF90CC
:10314000089541155105B1F07B01EC010C811D8101
:10315000040F151FB8010E946818882351F32881B5
:1031600039818C819D81B701820F931F0E94063F98
:103170001D830C8381E0DECFCF93DF93EC01888148
:103180009981009711F00E94833D198218821D8257
:103190001C821B821A82DF91CF910895CF93DF9317
:1031A000EC0141E050E062E874E00E949018811167
:1031B00003C0CE010E94BC18CE01DF91CF910895CB
:1031C000EF92FF920F931F93CF93DF93EC0186173B
:1031D000970781F0FB01008111810115110539F07C
:1031E000E480F580B7010E94681881110BC0CE0100
:1031F0000E94BC18CE01DF91CF911F910F91FF90DB
:10320000EF900895FD82EC82B801888199810E9437
:10321000063FF0CFEF92FF920F931F93CF93DF9370
:10322000EC017B01198218821B821A821D821C828A
:10323000FB0101900020E9F731978F01061B170B66
:10324000B8010E946818811109C0CE01DF91CF91A9
:103250001F910F91FF90EF900C94BC181D830C836D
:10326000B70188819981DF91CF911F910F91FF90D4
:10327000EF900C94063FFC0180819181009711F042
:103280000C94833D0895EF92FF920F931F93CF9379
:10329000DF9300D000D0CDB7DEB77B011A82198250
:1032A0001C821B821E821D82BC01CE0101960E94DF
:1032B000E018CE0101960E94CE188C01F7014481DE
:1032C0005581608171810E949018811103C0C801ED
:1032D0000E94BC18C8010E944417CE0101960E94AA
:1032E0003B1926960FB6F894DEBF0FBECDBFDF9117
:1032F000CF911F910F91FF90EF900895CF93DF939F
:10330000CDB7DEB72C970FB6F894DEBF0FBECDBF9A
:1033100060EF73E0CE0107960E940A1966EF73E032
:10332000CE0101960E940A19BE01695F7F4FCE014E
:1033300001960E944319CE0101960E943B19CE01CD
:1033400007960E943B1985E080932B020E940E1283
:103350000E946D046093AE047093AF048093B00438
:103360009093B1042C960FB6F894DEBF0FBECDBF7C
:10337000DF91CF910895CF93DF93CDB7DEB72C9730
:103380000FB6F894DEBF0FBECDBF60EF73E0CE0185
:1033900001960E940A1964E074E0CE0107960E942B
:1033A0000A19BE016F5F7F4FCE0107960E94431935
:1033B000CE0107960E943B19CE0101960E943B194F
:1033C0000E947E1947981092D7061092D806109244
:1033D000D9061092DA061092DB061092DC061092E3
:1033E000DD061092DE061092FB061092FC0610928B
:1033F000FD061092FE061092CA061092CB0610929D
:10340000CC061092CD061092DF061092E0061092C4
:10341000E1061092E20642EA5DEF6FEF7FEF87EC84
:1034200096E00E94A70C4091DB065091DC0660916B
:10343000DD067091DE068091D7069091D806A091A6
:10344000D906B091DA06481759076A077B0739F0A1
:1034500087EC96E00E94100C0E943812E4CF809115
:103460002B02882319F00E943812F9CF2C960FB640
:10347000F894DEBF0FBECDBFDF91CF9108954F927C
:103480005F926F927F928F929F92AF92BF92CF92F4
:10349000DF92EF92FF92CF93DF93CDB7DEB72C97F9
:1034A0000FB6F894DEBF0FBECDBF7C0166E174E0BD
:1034B000CE0107960E940A196CE174E0CE010196D4
:1034C0000E940A19BE01695F7F4FCE0101960E94DA
:1034D0004319CE0101960E943B19CE0107960E9426
:1034E0003B1928EE33E0D7010E94CC3C4B015C0134
:1034F0000E946D042B013C01C501B4010E94F91723
:1035000073016201C418D508E608F708C814D90485
:10351000EA04FB04E0F46AEE72EF8FEF9FEF0E9483
:10352000EB100E946D046B017C01DC01CB0184195E
:103530009509A609B70988159905AA05BB0510F7CD
:1035400064E775EF8FEF9FEF0E94EB10DBCF6EE328
:103550007EEF8FEF9FEF0E94EB1060EA7FE080E04C
:1035600090E00E943B042C960FB6F894DEBF0FBE8D
:10357000CDBFDF91CF91FF90EF90DF90CF90BF90C4
:10358000AF909F908F907F906F905F904F90089535
:10359000CF93DF93CDB7DEB72C970FB6F894DEBF8D
:1035A0000FBECDBF66E174E0CE0107960E940A19F6
:1035B00065E274E0CE0101960E940A19BE01695FBE
:1035C0007F4FCE0101960E944319CE0101960E94C1
:1035D0003B19CE0107960E943B191092E908109200
:1035E000EA081092EB081092EC081092ED08109285
:1035F000EE081092EF081092F00810920D09109248
:103600000E0910920F09109210091092DC08109206
:10361000DD081092DE081092DF081092F108109277
:10362000F2081092F3081092F4084FE956E861E0AE
:1036300070E089ED98E00E94A70C83E00E9483036C
:1036400021E0892B09F020E0211109C089ED98E0E3
:103650000E94100C83E00E948303892BB9F789ED47
:1036600098E00E94BE0C6091E9087091EA08809190
:10367000EB089091EC080E94D9171092E90810927B
:10368000EA081092EB081092EC081092ED081092E4
:10369000EE081092EF081092F00810920D091092A7
:1036A0000E0910920F09109210091092DC08109266
:1036B000DD081092DE081092DF081092F1081092D7
:1036C000F2081092F3081092F40889ED98E00E9435
:1036D000100C2C960FB6F894DEBF0FBECDBFDF9155
:1036E000CF910895CF93DF93CDB7DEB7AF970FB6E5
:1036F000F894DEBF0FBECDBF6EE37EEF8FEF9FEF7E
:103700000E94EB106EE17BEF8FEF9FEF0E940C1198
:10371000CE0101960E94320D888599850E943F1A3C
:1037200068ED75EF8FEF9FEF0E940C11CE010196AF
:103730000E94320D8A859B850E943F1A60E670EFD9
:103740008FEF9FEF0E940C11CE0101960E94320D67
:103750008C859D850E943F1A6CE47BEE8FEF9FEF76
:103760000E940C11CE0101960E94320D8E859F851C
:103770000E943F1A83E90E94E80F60E27AEE8FEF21
:103780009FEF0E940C11CE0101960E94320D888994
:1037900099890E943F1A64E37FEE8FEF9FEF0E94AA
:1037A0000C11CE0101960E94320D8A899B890E94DC
:1037B0003F1A68E474EF8FEF9FEF0E940C11CE0167
:1037C00001960E94320D8C899D890E943F1A60ECFF
:1037D00079EF8FEF9FEF0E940C11CE0101960E94AE
:1037E000320D8E899F890E943F1A60E070E0CB0104
:1037F0000E940C1161E088E00E94AC0360E070E080
:10380000CB010E94EB1068EE73E080E090E00E9434
:103810003B0460E088E00E94AC030E946D0460936A
:103820002A0570932B0580932C0590932D0560E05D
:1038300081E40E94AC036EE37EEF8FEF9FEF0E9466
:10384000EB1060EC79EF8FEF9FEF0E940C118CE092
:103850000E94E80F0E94C81A66E174E0CE0101964A
:103860000E940A196BE274E0CE018A960E940A193E
:10387000BE016F5F7F4FCE018A960E944319CE0131
:103880008A960E943B19CE0101960E943B19109224
:103890002D0910922E0910922F09109230091092C2
:1038A00031091092320910923309109234091092A2
:1038B0005109109252091092530910925409109212
:1038C00020091092210910922209109223091092C6
:1038D00035091092360910923709109238094FE9CC
:1038E00056E861E070E08DE199E00E94A70C82E06B
:1038F0000E94830321E0892B09F020E0211109C0F7
:103900008DE199E00E94100C82E00E948303892BD4
:10391000B9F78DE199E00E94BE0C60912D0970917C
:103920002E0980912F09909130090E94D917109289
:103930002D0910922E0910922F0910923009109221
:103940003109109232091092330910923409109201
:103950005109109252091092530910925409109271
:103960002009109221091092220910922309109225
:1039700035091092360910923709109238098DE1F5
:1039800099E00E94100C61E086E20E94AC0361E0C5
:1039900088E30E94AC03AF960FB6F894DEBF0FBE6B
:1039A000CDBFDF91CF9108950C94833D0F931F936A
:1039B000CF93062F062E000C110BDC011396ED9110
:1039C000FC91828D882341F0C62FB80181E394E0F9
:1039D0000E94FB3E892B09F52091E1053091E2051B
:1039E000F90190E080E042814017110671F4FC017A
:1039F000EE0FFF1FE80FF91FE20FF31F60817181C7
:103A00008FEFCF911F910F910895019633968A30D1
:103A1000910549F760E070E0F3CF67E070E08FEC6C
:103A20008C0FEFCFEF92FF920F931F93CF93DF9303
:103A3000EC018B01CA01E881F981E684F784DA019F
:103A4000ED91FC910284F385E02D1995682FC80152
:103A50000E94D61C9B01482FB801CE01F701DF91CF
:103A6000CF911F910F91FF90EF9019942F923F9259
:103A70004F925F926F927F928F929F92AF92BF927E
:103A8000CF92DF92EF92FF920F931F93CF93DF932A
:103A900000D000D01F92CDB7DEB71C017B836A83B4
:103AA0005F834E83DA01ED91FC910484F585E02D6E
:103AB000CA0119958D3209F041C0AE81BF81ED91E7
:103AC000FC9111970284F385E02DCD011995AE810B
:103AD000BF81ED91FC9111970484F585E02DCD0116
:103AE0001995BC0181E394E00E94FB3E892B09F00B
:103AF000B1C0D101ED91FC910684F785E02D24E061
:103B000030E04FEF6A817B81C10127960FB6F894B0
:103B1000DEBF0FBECDBFDF91CF911F910F91FF9000
:103B2000EF90DF90CF90BF90AF909F908F907F905D
:103B30006F905F904F903F902F901994682F880F4F
:103B4000770B81E394E00E94FB3E892B09F4E0C0EF
:103B500080E0EE81FF81F485FD83FF2309F4D0C06E
:103B6000412C512C20E8622E2FEB722E811106C0C1
:103B7000412C512C90E8692E9FE3792E8E819F81F4
:103B80000E9479048C0197FDB7C0AE81BF81ED9191
:103B9000FC910284F385E02D8D32910509F05CC023
:103BA000812C912C80E8A82E8FE3B82EC12CD12C2B
:103BB000760119821C820130110561F10D32110567
:103BC00009F456C00E32110509F455C0C801C0975A
:103BD0000A9700F5AAE0B0E0A70196010E94F33A27
:103BE0006801110FEE08FF08C60ED71EE81EF91E69
:103BF000B0E3CB1AD108E108F108E981EE2351F0D6
:103C00002DEC3CEC4CEC5DE3C501B4010E94E639BF
:103C10004B015C01AE81BF81ED91FC911197028453
:103C2000F385E02DCD0119958E819F810E94790445
:103C30008C01C0970A9708F4BECF0E321105F1F43B
:103C4000B981BB2309F4B7CFFC81FF2369F1FC8163
:103C5000F9831BC081E07DCFC0970A9708F4A0CFFD
:103C60000E32110509F49CCF8E819F81199586CF64
:103C7000FD81FC83CFCF2D812983CCCF013011056D
:103C800009F499CFEC81EE2341F0F094E094D094C4
:103C9000C094C11CD11CE11CF11CC701B6010E94DB
:103CA00087392981222341F0C701B6010E94873953
:103CB000A50194010E94E639D1011296ED91FC9183
:103CC0003C96259134913F832E839B01AC01C30127
:103CD000B2010E94E6390E940E3CAE81BF816D9315
:103CE0007C9381E0F10187830190F081E02D0684CF
:103CF000F785E02D22E004CF60E070E0CB01DCCF5F
:103D0000D101ED91FC910684F785E02D27E0F8CEF6
:103D1000D101ED91FC9106851785AE81BF81ED91B2
:103D2000FC9111970284F385E02DCD011995682F40
:103D30008A819B810E94D61C9B01482F6A817B81CE
:103D4000C101F801E2CECF93DF9300D01F92CDB72F
:103D5000DEB724E06202B0011124680F791F44E04D
:103D600050E0CE0101960E94423969817A818B81AF
:103D70009C810F900F900F900F90DF91CF9108953D
:103D80008F929F92AF92CF92DF92EF92FF920F931A
:103D90001F93CF93DF93EC01F62EEE81FF8180819C
:103DA00091810E94A31E472F770F550B062E000C02
:103DB000770B8A01090F111D97FD1A950150110902
:103DC0009B01280F311D87FD3A9521503109E8816B
:103DD000F9811F920284F385E02D88248394912C2D
:103DE000A12CD12CC12C90E2E92ECE011995E881AD
:103DF000F9810288F389E02D2F2D40E060E0CE01AB
:103E00001995EE81FF816F2D660F770B828193816B
:103E1000680F791FFB01118210820F90DF91CF9103
:103E20001F910F91FF90EF90DF90CF90AF909F90F8
:103E30008F900895EF92FF920F931F93CF93DF938C
:103E4000EC01F62EE42EE881F9810288F389E02D59
:103E5000242F462F60E0199510E000E0EE81FF81ED
:103E600060E0808191810E94A31E082E000C990BB6
:103E7000081719073CF460E2CE010E94A7040F5F07
:103E80001F4FECCFE881F9810288F389E02D2E2DB8
:103E90004F2D60E0CE01DF91CF911F910F91FF90E8
:103EA000EF901994FC01808191810E94A31E892FBB
:103EB00008952F923F924F925F926F927F928F92CE
:103EC0009F92AF92BF92CF92EF92FF920F931F9368
:103ED000CF93DF93EC012B015A01122FE881F98176
:103EE0000488F589E02D00E021E030E040E061E069
:103EF00070E0199560E170E0C5010E947D0788239C
:103F000009F45DC0912C812CD501ED91FC910190BB
:103F1000F081E02DC5011995082E000C990B88162B
:103F200099060CF0D6C0D501ED91FC910088F1897D
:103F3000E02D682DC50119953C01FC0124813581D6
:103F4000E881F9810488F589E02D00E040E061E036
:103F500070E0CE011995D30114962D913C91E88122
:103F6000F9810688F789E02DE12E40E0682DCE0129
:103F70001995F30124813581E881F9810488F58957
:103F8000E02D40E061E070E0CE011995D301ED91A4
:103F9000FC9124803580EE81FF81612F80819181A9
:103FA0000E94A31EC12EE82E082D9E0140E0B20102
:103FB000C301F1011995FFEF8F1A9F0AA5CFE88180
:103FC000F9810088F189E02D612FCE011995E881F2
:103FD000F9810288F389E02D212F40E060E0CE01D5
:103FE0001995312C612F8E819F810E94521F3816A6
:103FF0000CF06FC0D501ED91FC910190F081E02DA6
:10400000C501199538160CF064C0D501ED91FC91ED
:104010000088F189E02D632DC50119954C01FC0143
:10402000E480F580E881F9810484F585E02DC12CD8
:1040300000E030E020E0412F632DCE011995E881AA
:10404000F9810288F389E02D212F432D60E0CE0114
:104050001995D40114962D913C91E881F981048839
:10406000F589E02D40E061E070E0CE011995F401A2
:1040700024813581E881F9810688F789E02DE12ED8
:1040800040E0632DCE011995D40114962D913C91F9
:10409000E881F9810488F589E02D40E061E070E075
:1040A000CE011995D401ED91FC9164807580EE816B
:1040B000FF81612F808191810E94A31EC12EE82E75
:1040C000032D9E0140E0B201C401F3011995339420
:1040D00089CFDF91CF911F910F91FF90EF90CF90FB
:1040E000BF90AF909F908F907F906F905F904F9018
:1040F0003F902F9008952F923F924F925F926F9230
:104100007F928F929F92AF92BF92CF92DF92EF9267
:10411000FF920F931F93CF93DF93CDB7DEB76397D3
:104120000FB6F894DEBF0FBECDBF9B8B8A8B2B01E1
:10413000142FDB011396ED91FC9165E070E086850C
:1041400097850E947D07082FF20183819481DC010D
:10415000011154C01E968D919C91DC01ED91FC9152
:104160000680F781E02D20E04A895B89B20119952C
:10417000882309F1D2011396ED91FC91A684B784AE
:10418000D501ED91FC9184809580AA89BB89169612
:10419000ED91FC91612F808191810E94A31EF2011B
:1041A00063817481C12EE82E00812A893B8941E018
:1041B000C501F4011995F20181819281AA89BB8917
:1041C0001B969C938E931A9780E063960FB6F89493
:1041D000DEBF0FBECDBFDF91CF911F910F91FF903A
:1041E000EF90DF90CF90BF90AF909F908F907F9097
:1041F0006F905F904F903F902F9008951796AC90DE
:10420000AA2031F00E944A070E9470078111AA94E7
:104210000A2C000CBB08AA89BB891496ED91FC916D
:10422000EA0DFB1D608060E170E0F2018181928106
:104230000E947D07382ED2011196ED91FC911297C4
:10424000828193810896FC012591349121FD0BC058
:104250001396ED91FC917084772099F0FC01859183
:10426000949182FD0DC031100BC0612FEA89FB894A
:10427000868197810E94521F7724739482300CF4B8
:10428000712CD20111968D919C910E947007811121
:1042900029C0C72CD12CEA89FB898485882309F49D
:1042A0008BC0D201FC900680F781E02D612F8081C8
:1042B00091810E94A31EAA89BB891496ED91FC915D
:1042C000EA0DFB1D2F2D0F2C000C330B672F690FF0
:1042D000062E000C770B6C197D09C9010E94B03CB9
:1042E000F81AF082EA89FB89408540FD34C00480D9
:1042F000F581E02DEA0DFB1D808186112CC0AA8975
:10430000BB891A968D919C911B97F2012181328174
:104310008217930701F51696ED91FC910280F381C7
:10432000E02D212F220F330BE20FF31F208131816B
:104330002415350581F400E041FD0DC0DC01ED914F
:10434000FC910680F781E02D00E021E04A895B893D
:10435000B2011995082FD2011196ED91FC91D680EA
:10436000D02A29F4EA89FB89808581FF2DCFAA898B
:10437000BB891696ED91FC91612F808191810E94FD
:10438000A31E982E711061C1F20181819281DC011E
:10439000ED91FC910680F781E02D00E020E04A8954
:1043A0005B89B201199581113FC1D11040C1332001
:1043B00009F4A1C11982A8C1F20180814601880EC9
:1043C000911C87FD9A94AA89BB891496ED91FC9162
:1043D0001597EA0DFB1DE0800E2C000CFF08612FE5
:1043E00016968D919C910E94521FE80EF11C87FD3C
:1043F000FA948E149F045CF0AA89BB891496ED91FF
:10440000FC91EA0DFB1D80818F5F8083D5CFAA8947
:10441000BB891496ED91FC91EA0DFB1D9081F20190
:10442000808189175CF4AA89BB891496ED91FC916F
:10443000EA0DFB1D808181508083E9CF218132818B
:10444000992309F44FCFC9010E942006E82E880F56
:10445000FF08AA89BB891496ED91FC911597EA0D86
:10446000FB1D8081E81AF10887FDF394612F1696F1
:104470008D919C910E94521F082E000C990B8C1953
:104480009D09E816F9067CF22DCF332009F433C1DB
:1044900062E874E08A899B890E9435178BCF612F6F
:1044A000EA89FB89868197810E94521F082E000CA1
:1044B000990B29853A85821B930BE816F9060CF4B3
:1044C0004AC179CEDC01ED91FC910680F781E02DA7
:1044D00000E020E04A895B89B2011995811158C139
:1044E000839432C1332009F484C02A813B8162164F
:1044F000730609F07EC06FE374E08A899B890E948D
:104500003517F92CEE24EA94EF0CF501248135815E
:10451000AA89BB89ED91FC9111970488F589E02D5A
:104520000C81422D61E070E0CD0119951E140CF54F
:10453000F20163817481D501ED91FC910480F581D4
:10454000E02DC12E082D2A893B89422DC5011995E0
:1045500018167CF4332069F0EA81FB816DE374E086
:104560006E167F0611F06EE573E08A899B890E94C2
:1045700035172A813B816216730609F0B1CFAA89EB
:10458000BB891696ED91FC918481082E000C990B45
:10459000EE85FF85E817F9070CF0A2CFC5010E9450
:1045A0002F07882349F0D5011296ED91FC913296A0
:1045B0008591949184FF1FC0AA89BB891696ED91BD
:1045C000FC910280F381E02D2F813885E20FF31FEB
:1045D00080819181892B09F483CFAA89BB89ED91D0
:1045E000FC9111970088F189E02D6B85CD0119951B
:1045F00077CFF92C40C1D20113966D917C912B8518
:10460000A5018A899B890E94591FAA89BB89169690
:10461000ED91FC910280F381E02D2F813885E20F2E
:10462000F31F518240825CCFDD2009F42ECF311080
:104630002FCFAA89BB89ED91FC9111970088F18950
:10464000E02D612FCD01199556C0D11027C1311031
:104650001FCFAA89BB89ED91FC9111970488F58938
:10466000E02D00E021E030E040E065E070E0CD01C9
:104670001995AA89BB89ED91FC9111970484F58560
:10468000E02DC12CEE24E394F12C25E030E0412F05
:1046900060E0CD011995AA89BB89ED91FC91119734
:1046A0000488F589E02D21E030E041E065E070E02C
:1046B000CD011995AA89BB89ED91FC9111970288CA
:1046C000F389E02D212F40E060E0CD011995F20142
:1046D0008181928163817481DC01ED91FC91048080
:1046E000F581E02DC12E4EEFE42EE90C0FEF2A8963
:1046F0003B8941E01995EA89FB8984819581A80E5F
:10470000B91ED501BC91B983812F012E000C990BE4
:104710000196FC01EE0FFF1FF887EF83812C272DF8
:1047200030E03A872987A9810A2E000CBB0BBD8790
:10473000AC879F878E87B1E0B10FBB87E981EF5CC3
:10474000E88BFDEFF90DF98BE82C082C000CFF0825
:10475000332009F4A4CE6C847D846E0C7F1CD201BE
:1047600011968D919C910E942006082E000C990BA9
:10477000681679060CF01FCD6981680DD20111967B
:104780008D919C910E9419065C01DD2009F49ACE5E
:10479000E985FA85EE0DFF1DFE83ED83D2018C9134
:1047A000E82F880FFF0BFB83EA83222423946E16E5
:1047B0007F0609F0212CF1E0FC83D20111968D9146
:1047C0009C918A159B0509F01C82311020C0F501CF
:1047D000E480F580AA89BB89ED91FC91119704844E
:1047E000F585E02DC12C022D30E020E0412F6D81B8
:1047F000CD011995AA89BB89ED91FC911197028889
:10480000F389E02D212F4D8160E0CD011995F5014F
:1048100024813581AA89BB89ED91FC911197048887
:10482000F589E02D0C81422D61E070E0CD011995F4
:10483000D2011396ED91FC91828D882309F452CE1A
:10484000311053CEEA89FB89808582FFD2CE088958
:10485000080D6BE5CF010E94A7040A330CF00DE2AE
:10486000602F8A899B890E94A7046DE58A899B89AC
:104870000E94A704F988D50114962D913C91AA892C
:10488000BB89ED91FC9111970688F789E02DE12E07
:104890000C81422D6D81CD01199534CE3110F8CDAA
:1048A000AA89BB89ED91FC9111970088F189E02DCF
:1048B000612FCD011995CDCE2F923F924F925F92ED
:1048C0006F927F928F929F92AF92BF92CF92DF9220
:1048D000EF92FF920F931F93CF93DF9300D01F921D
:1048E000CDB7DEB73C016B01B12CA12CD3018D916A
:1048F0009C911197A816B9060CF053C11296ED9130
:10490000FC91C501880F991FE80FF91FE590F490FD
:10491000F7018085918581729927892BA1F4828581
:104920009385892B09F09EC0D60113960D90BC91FA
:10493000A02DBA83A9830E946D04E981FA81648B5A
:10494000758B868B978BD60113960D90BC91A02DFD
:10495000BA83A983CD010E944A07E981FA810781C0
:10496000002E000C110B0E947007882311F00150DB
:104970001109D6011396ED91FC91B5E0B09FC001ED
:10498000B19F900D112444805580480E591ED701C7
:104990001696ED91FC91B481EB2F0E2E000CFF0BBF
:1049A0003197FC83EB830E171F0714F41C830B83D2
:1049B000D70118968C9183FF08C0EB81FC8130975A
:1049C00009F499C03197FC83EB83912C812C9801D9
:1049D0008B819C81281B390B3A832983AB81BC8155
:1049E0008A169B060CF087C0F60163817481898169
:1049F0009A81880D991DF5E0F89F8001F99F100DAF
:104A00001124DB0114968D919C91080F191F14013C
:104A1000220C331CF701808581FF0DC00680F781D1
:104A2000E02D0280F381E02DE20DF31D8081918164
:104A30000817190799F0D80111964D915C91282D0E
:104A4000C7010E94591FD7011696ED91FC91028073
:104A5000F381E02DE20DF31D11830083BFEF8B1A6C
:104A60009B0ABCCFD60111968D919C91DC01ED91F2
:104A7000FC910680F781E02D00E021E0A701B6015E
:104A80001995811151CFD6011396ED91FC91818931
:104A9000882369F1808D918D892B49F10E946D04E5
:104AA000F6010380F481E02DFA83E98304891589F6
:104AB00026893789601B710B820B930B28EE33E03C
:104AC00040E050E00E94FE3AA981BA8158968D914B
:104AD0009C91B0E0A0E082179307A407B50738F4D3
:104AE000E981FA8162857385CF010E9439143FEF15
:104AF000A31AB30AFBCED7011696ED91FC91BB81A8
:104B0000B5834B2FB201C7010E947B200B811C8112
:104B1000000F111FD7011696ED91FC910280F381D1
:104B2000E02DE00FF11FD182C082EB81FC81329633
:104B3000FA83E983D7011696ED91FC91179784814A
:104B4000082E000C990B29813A81281739077CF629
:104B5000480134E0830E911C0280F381E02DE80DC2
:104B6000F91D80819181892B99F0ED91FC9100884C
:104B7000F189E02D6981C7011995D7011696ED914C
:104B8000FC9182819381880E991EF401118210821A
:104B900029813A812F5F3F4F3A8329830E5F1F4F50
:104BA000C9CF1A821982D3018D919C911197E98105
:104BB000FA81E817F907ECF4CF01880F991F1296D4
:104BC000ED91FC91E80FF91F45915491D601119692
:104BD0008D919C91DC01ED91FC910280F381E02D9F
:104BE00021E0B6011995E981FA813196FA83E983CA
:104BF000DACF80E00F900F900F900F90DF91CF9160
:104C00001F910F91FF90EF90DF90CF90BF90AF90EA
:104C10009F908F907F906F905F904F903F902F90DC
:104C20000895AF92BF92CF92EF92FF920F931F938E
:104C3000CF93DF938C015B01E9014E2DDC011296CD
:104C4000ED91FC91349665917491E881F98100842D
:104C5000F185E02DC9011995F82ED8011296ED9134
:104C6000FC91329685919491857199274597A1F48D
:104C7000F501878164817581F5E08F02600D711DFA
:104C80001124DB0111968D919C910817190779F475
:104C90004C2DCE010E947B208F2DDF91CF911F9153
:104CA0000F91FF90EF90CF90BF90AF9008952C2D73
:104CB000A801B501CE010E94591FEECF6F927F92DD
:104CC0008F929F92AF92BF92CF92DF92EF92FF921C
:104CD0000F931F93CF93DF93EC014B01D42E590117
:104CE000FE2CEA81FB813C96A591B4918D919C911B
:104CF00099878887CE010E941126182F8E150CF0F7
:104D000052C0D4011E966D907C90C615D70541F413
:104D1000DD2031F08F816AE3882319F06EE301C052
:104D200060E2C5010E94A7041F5F1F150CF03BC085
:104D300099249394C615D70509F0912C2C813D81B7
:104D4000D501ED91FC910488F589E02D092D4D2DBB
:104D500062E070E0C5011995E881F9810688F7895C
:104D6000E02DB501CE011995180F1F15E4F42C8123
:104D70003D81D501ED91FC910488F589E02D4D2D03
:104D800063E070E0C5011995EA81FB813A9665916F
:104D90007491D501ED91FC910084F185E02D4F2DAA
:104DA000C5011995180F812FDF91CF911F910F9198
:104DB000FF90EF90DF90CF90BF90AF909F908F903B
:104DC0007F906F9008956F927F928F929F92AF9293
:104DD000BF92CF92DF92EF92FF920F931F93CF93E8
:104DE000DF93EC017B016A01622E1E8264E170E0B8
:104DF0000E947D07882329F110E000E0E881F98115
:104E00000190F081E02DCE011995082E000C990B30
:104E1000081719070CF0C3C0E881F9810088F189EF
:104E2000E02D602FCE011995DC01ED91FC910280FF
:104E3000F381E02D20E0A601B70119950F5F1F4F08
:104E4000DDCFD7011396ED91FC917780CE010E94C2
:104E50007007B72DE5E0BE02400111248823B1F0B0
:104E6000D7011396ED91FC9164817581C40105977A
:104E7000680F791FFB0181819281DC01ED91FC912A
:104E80000280F381E02D262DA601199560E0F60140
:104E9000868197810E94521F082F8A819B810896E4
:104EA000FC0125913491F701A381B48111E021FD2A
:104EB00011C018962C91189710E0222359F0FC018C
:104EC000859194919695879596958795F1E08F2792
:104ED000182F1170F601A480B58014968D919C91C5
:104EE000880E991ED40111968D909C9060E170E01F
:104EF000C4010E947D07811105C064E070E0C40117
:104F00000E947D07662009F44AC0272D770C330BD9
:104F1000F901E81BF109CF018A0D9B1DDC017C9092
:104F2000B12CA12C011B802E000F9908172D1A0DF2
:104F3000A814B904A4F5E881F9810190F081E02D6D
:104F4000CE01199518175CF5E881F9810088F1897F
:104F5000E02D612FCE011995DC01ED91FC910280CD
:104F6000F381E02D20E0A601B7011995E881F981D0
:104F70000088F189E02D612FCE011995DC01ED91BA
:104F8000FC910680F781E02D00E020E0A601B7014A
:104F90001995811104C0BFEFAB1ABB0AC7CFDF91CF
:104FA000CF911F910F91FF90EF90DF90CF90BF9026
:104FB000AF909F908F907F906F9008955F926F92C7
:104FC0007F928F929F92AF92BF92CF92DF92EF9299
:104FD000FF920F931F93CF93DF93DC0116961C91E2
:104FE0001111ECC0502E022F6A017B01EC0164E12B
:104FF00070E00E947D07882341F1B12CA12CE8814B
:10500000F9810190F081E02DCE011995082E000C58
:10501000990BA816B90614F5E881F9810088F18981
:10502000E02D6A2DCE011995DC01ED91FC910680F1
:10503000F781E02D052D20E0A601B701199581111A
:10504000BDC0BFEFAB1ABB0ADACFF70181819281F5
:10505000C817D90711F4011112C01E81812FDF91E9
:10506000CF911F910F91FF90EF90DF90CF90BF9065
:10507000AF909F908F907F906F905F900895038086
:10508000F481E02DA780CE010E947007BA2DE5E0E3
:10509000BE02300111248823D1F0D7011396ED917F
:1050A000FC91B5E06B1A710864817581660D771DFE
:1050B000FB0181819281DC01ED91FC910680F781F9
:1050C000E02D052D21E0A6011995182FC7CF60E02E
:1050D000F601868197810E94521F2A813B81285FB9
:1050E0003F4FF90145915491F701A381B48141FDEE
:1050F00061C018969C911897992309F45DC0F90135
:10510000259134913695279536952795F1E02F27EF
:105110002170082F021BF601848095800A2C000C58
:10512000BB0814966D917C91660E771ED301119683
:105130006D907C9060E170E0C3010E947D07811159
:1051400005C064E070E0C3010E947D07A81AB108A1
:105150008A0C9B1CF4017080B12CA12C802E000FB6
:105160009908072D0A0DA814B9040CF077CFE8812F
:10517000F9810190F081E02DCE01199508170CF00E
:105180006DCFE881F9810088F189E02D602FCE0193
:105190001995DC01ED91FC910680F781E02D052D3C
:1051A00020E0A601B7011995811108C0BFEFAB1A25
:1051B000BB0AD7CF21E0ADCF20E0ABCF11E04ECF7F
:1051C0000F931F93CF93DF938C01C62FD42FDC0155
:1051D0001696ED91FC91622F808191810E94A31E11
:1051E0004D2F470F6C0FF80185859685DF91CF9184
:1051F0001F910F910C94C413CF93DF931F921F92B2
:10520000CDB7DEB742E050E0BC01CE0101960E946E
:10521000423989819A810F900F90DF91CF91089543
:10522000EF92FF920F931F93CF93DF93EC01809146
:10523000E3058823A9F18FEF9FEF869F7001879F79
:10524000F00C969FF00C11248A819B812F812223E0
:1052500051F144960E94FC288C0181E08E838A8162
:105260009B811E141F040CF03DC040960E94FC2838
:105270004A815B819A01245F3F4FF901A591B49166
:105280006D917C91861B970B80179107D4F4FA01DE
:1052900038968591949180FF08C0CA010E9607C088
:1052A00081E090E0CACF4296D5CFCA0140960E94D5
:1052B000FC28EA81FB813C96A591B4918D939C9347
:1052C0000AC0F901A591B4918D919C911197080F95
:1052D000191F0D931C93DF91CF911F910F91FF9098
:1052E000EF900895FC013C96A591B491ED90FC904F
:1052F0000E960E94FC28E81AF90A8A819B81E01622
:10530000F1063CF4FC0138962591349120FFC6CF7C
:10531000CDCF0C96FC01A591B4918D919C911197E4
:10532000801B910BCBCF0F931F93CF93DF93EC0197
:105330008A819B81FC013C96A591B4910D911C91B1
:105340000E960E94FC282A813B810817190784F4D5
:10535000C9010E960E94FC28EA81FB813C96A5912A
:10536000B4918D939C93DF91CF911F910F910895EC
:10537000F9013C96A591B4910D911C91C9014096FB
:105380000E94FC28EA81FB81801791071CF4CF0161
:105390004096E0CF3C96A591B4918D919C91DCCF45
:1053A000FC018281938144960E94FC2821E0892B94
:1053B00009F420E0822F08951F93CF93DF9385EDAA
:1053C0008093BC008091B9049091BA04A091BB0471
:1053D000B091BC040796A11DB11D23E0B695A79519
:1053E000979587952A95D1F72091BC0024FD03C09D
:1053F0001092010552C04091B9045091BA046091D5
:10540000BB047091BC04452B462B472B69F30097D6
:10541000A105B10541F02AE22A95F1F700C00197F4
:10542000A109B109E1CF8091B804C1E0C093B704EC
:10543000882399F1D091B8001091BA008091BC00F6
:105440008A7B8093BC0060E084E10E94AC0360E052
:1054500085E10E94AC0310920105C09303051092F0
:10546000020561E084E10E94AC0361E085E10E94F5
:10547000AC038091B9008E7F8093B9008091B90010
:105480008D7F8093B90088E48093B80085E4809391
:10549000BC001093BA00D093B800DF91CF911F9158
:1054A00008954F925F926F927F928F929F92AF92E8
:1054B000BF92CF92DF92EF92FF92CF93DF93EC01F6
:1054C0006A017B0120E030E0A901CB01B6010E9416
:1054D000803987FF04C0F7FAF094F7F8F09488A0B9
:1054E00099A0AAA0BBA0A7019601C501B4010E9482
:1054F0008039882309F44DC06CA97DA98EA99FA984
:105500000E9487392B013C01A7019601C501B40116
:105510000E949C3B9B01AC01C301B2010E94E63991
:105520000E940E3C6CAB7DAB8EAB9FABA70196018E
:1055300060E070E080E090E40E949C3B0E944F3C61
:1055400026E53EE04DE25FE30E94E63920E034E2EA
:1055500044E759E40E94E63968AF79AF8AAF9BAF60
:10556000C8A2D9A2EAA2FBA2E881F9810084F18550
:10557000E02DCE01DF91CF91FF90EF90DF90CF90A3
:10558000BF90AF909F908F907F906F905F904F9063
:105590001994DF91CF91FF90EF90DF90CF90BF9063
:1055A000AF909F908F907F906F905F904F900895F5
:1055B000CF92DF92EF92FF920F931F93CF93DF93DF
:1055C000CDB7DEB72E970FB6F894DEBF0FBECDBFB6
:1055D0006B011A8619861C861B861E861D86BC01D9
:1055E000CE0109960E94E018CE0109960E94CE18BD
:1055F0007C014AE08E010F5F1F4FB801C6010E9477
:105600004B39F80101900020E9F73197AF01401BB9
:10561000510BB801C7010E949018811103C0C70146
:105620000E94BC18C7010E944417CE0109960E942F
:105630003B192E960FB6F894DEBF0FBECDBFDF919B
:10564000CF911F910F91FF90EF90DF90CF90089531
:10565000DF92EF92FF920F931F93CF93DF9389E234
:1056600090E00E9421188823F1F082E0E82E82E089
:10567000F82ED0E0C0E08E010F5F1F4FCE010E94D8
:10568000B43AF701D1907F01D81649F0C8010E94C1
:105690002118882321F06D2DCE010E94C63AE80121
:1056A0000932110541F7DF91CF911F910F91FF90C2
:1056B000EF90DF90089510920602109205020E946A
:1056C000282B90E080E008951F920F920FB60F9262
:1056D00011242F933F938F939F93AF93BF93809108
:1056E000300590913105A0913205B091330530918C
:1056F0002F0523E0230F2D3758F50196A11DB11D6D
:1057000020932F058093300590933105A0933205A7
:10571000B09333058091340590913505A0913605FD
:10572000B09137050196A11DB11D8093340590936A
:105730003505A0933605B0933705BF91AF919F9182
:105740008F913F912F910F900FBE0F901F90189542
:1057500026E8230F0296A11DB11DD2CF1F920F92F2
:105760000FB60F9211240BB60F922F933F934F93C6
:105770005F936F937F938F939F93AF93BF93EF93B9
:10578000FF938AE395E00E942205FF91EF91BF917C
:10579000AF919F918F917F916F915F914F913F91C9
:1057A0002F910F900BBE0F900FBE0F901F9018956A
:1057B0001F920F920FB60F9211240BB60F922F93D8
:1057C0008F939F93EF93FF93E0914A05F0914B05E0
:1057D0008081E0915005F091510582FD1DC09081BE
:1057E000809153058F5F8F7320915405821741F08C
:1057F000E0915305F0E0E65CFA4F958F80935305F6
:10580000FF91EF919F918F912F910F900BBE0F9071
:105810000FBE0F901F9018958081F2CF1F920F92AC
:105820000FB60F9211240BB60F922F933F934F9305
:105830005F936F937F938F939F93AF93BF93EF93F8
:10584000FF93E0912705F09128051995FF91EF91BD
:10585000BF91AF919F918F917F916F915F914F9188
:105860003F912F910F900BBE0F900FBE0F901F9086
:1058700018951F920F920FB60F9211240BB60F922C
:105880002F933F934F935F936F937F938F939F9348
:10589000AF93BF93EF93FF938091B900887F8036D9
:1058A00009F44DC008F040C0883209F4A7C028F5BB
:1058B000803109F49BC0C8F4882309F4F7C088300C
:1058C00009F494C0FF91EF91BF91AF919F918F9197
:1058D0007F916F915F914F913F912F910F900BBEF0
:1058E0000F900FBE0F901F901895883109F486C055
:1058F000803241F78093000514C0803409F49BC0C6
:1059000040F48033B9F38833E9F68093000585ECE1
:10591000AEC0803509F483C0883509F494C088345A
:1059200089F60E94DC29CECF883909F48AC038F57F
:10593000883729F050F4883611F0803719F683E063
:10594000809301051092FF0455C0883809F479C08E
:10595000803919F0803809F0B5CF8091FF0480328A
:1059600008F06FC0E091FF0481E08E0F8093FF0488
:105970008091BB00F0E0E152FB4F80833BC0803B55
:1059800039F0D0F4803A09F477C0883A09F09ACF18
:1059900084E0809301051092DE041092DD04F0E0B3
:1059A000E0E019958091DD0481110FC081E08093C2
:1059B000DD041092BD0409C0803C09F4A8CF883CE6
:1059C00009F4A5CF883B09F07DCFE091DE0481E0AA
:1059D0008E0F8093DE04F0E0E354FB4F80818093D0
:1059E000BB009091DE048091DD0429C080912605E2
:1059F0008093BB0085EC8093BC0064CF909125051B
:105A000080912405981758F5E091250581E08E0FC7
:105A100080932505F0E0EC5FFA4F8081E9CFE091BB
:105A2000250581E08E0F809325058091BB00F0E075
:105A3000EC5FFA4F8083909125058091240598179B
:105A4000C8F285E8D8CFE091250581E08E0F8093DC
:105A500025058091BB00F0E0EC5FFA4F80838091D8
:105A6000030581115ECF81E08093020584EA809373
:105A7000BC001092010526CF85EC8093BC001092EB
:105A800001058091FF04803230F4E091FF04F0E0E2
:105A9000E152FB4F10826091FF0470E08FED94E0C3
:105AA000F0E0E0E019951092FF040CCF1092000591
:105AB00038CF1F920F920FB60F9211240BB60F9290
:105AC0002F933F934F935F936F937F938F939F9306
:105AD000AF93BF93EF93FF9348E251E064E271E02C
