:020000040000FA
:100000000C94FF050C9430060C9430060C943006CA
:100010000C9430060C9430060C9430060C94300688
:100020000C9430060C9430060C9430060C94300678
:100030000C9430060C9430060C9430060C94300668
:100040000C9430060C94BA360C9430060C9430069E
:100050000C9430060C9430060C9430060C946634E4
:100060000C9430060C94DA340C94B0340C943006B2
:100070000C9430060C9430060C9430060C94300628
:100080000C948C360C9430060C9430060C94E836A4
:100090000C9430060C9430060C9430060C941035F9
:1000A0000C9430060C9430060C945E360C9430069A
:1000B0000C9430060C9430060C9430060C943036B8
:1000C0000C9430060C9430060C9430060C943006D8
:1000D0000C9430060C9430060C9430060C943006C8
:1000E0000C9430060C9432070C94D9450C94B1064C
:1000F0000C94132D0C940D250C9435150C94DE45A1
:100100000C94FC2F0C9407130C94C90D0C94CF0D78
:100110000C946E0F0C94550C0C944F070C943C13DC
:100120000C9449170C9453310C94840C0C94FC09D6
:100130000C94600F0C94820D0C94C50D0C948106E8
:100140000C94F1190C9476060C9458340C94DC073A
:100150000C94490A0C940D320C9468140C944E0DB6
:100160000C9493140C947E060C945B070C94770704
:100170000C9499060C9435060C94BA300C94670FC5
:100180000C9413150C9483070C9461140C947D301B
:100190000C94A00D0C9472060C941F150C949F0ED9
:1001A0000C94520F0C943F380C9444150C94630734
:1001B0000C94DB1C0C948B060C9426150C94BC122E
:1001C0000C9446150C94A3060C9468130C94CF3130
:1001D0000C942D120C94590F0C9474240C94AD06AD
:1001E0000C94E70E0C94C2250C94A0070C949F0667
:1001F0000C945C0C0C942D070C94E3450C944D1E50
:100200000C94461E0C949D230C94D30D0C94AC3787
:100210000C94D0070C94161D0C94C4070C94A706DC
:100220000C944B0F0C9438150C94CA2E0C941C266D
:100230000C9495060C9495370C94CD0D0C94BF45F9
:100240000C94290E0C94B6090C94C70C0C94C3148E
:100250000C94AC060C94B8190C948D120C94BD45FA
:100260000C94FA120C94CC2F0C94D7300C94660991
:100270000C94CF2D0C94AC070C94D1140C948831B1
:100280000C9493090C94C7450C946C060C943C0F89
:100290000C94B8070C94F71D0C94ED120C94B80C48
:1002A0000C94830C0C9494310C9491060C9446326B
:1002B0000C9455130C94031E0C949A120C948F07F3
:1002C0000C941E150C9426130C940E1C0C940A13FB
:1002D0000C94BA0C0C9443070C94D30C0C94CA45A0
:1002E0000C94250F0C946B070C94D10E0C943206D1
:1002F0000C9411150C9461340C94D10D0C94602D58
:100300000C94A2090C9437070C94C4090C94B445BE
:100310000C94440F0C94C40C0C946F0F0C940A0CA6
:100320000C944A0E0C947E0E0C947A060C94502475
:100330000C9487060C94C70D0C94CB0D160853092A
:10034000270A48084D61696E206D656E75002408A6
:100350001D0853686F74003C4261636B0032082BC8
:100360000855736572206D6F646573003C4261636C
:100370006B0041083A0844626C6520657870203152
:100380003A20004F6666004F6E00D708AB087F0822
:1003900056084F085365747570003C4261636B00EA
:1003A00076086D0864085D08536572766F003C42FC
:1003B00061636B0000506F732033202870726F747C
:1003C0006F290000506F7320320000506F7320318E
:1003D00000A10897088D08860841726D003C4261B3
:1003E000636B0000426F74746F6D20706F73000058
:1003F0004167697461746520746F7000004D6964B1
:10040000646C6500CD08C308B908B2085061706516
:1004100072003C4261636B000044656C746120664D
:100420006972737400005061706572206F7574009A
:10043000004F6E652073686F740049093F093509E4
:100440002B09210917090D090309F908EF08E50827
:10045000DE08506F736974696F6E73003C426163AC
:100460006B000054616E6B2038000054616E6B208D
:1004700037000054616E6B2036000054616E6B20B3
:1004800035000054616E6B2034000054616E6B20A7
:1004900033000054616E6B2032000054616E6B209B
:1004A00031000041726D20526F746174696F6E008B
:1004B0000045786974000043616D65726100C90987
:1004C0006B0961095A0954696D6573003C426163A7
:1004D0006B007300447279657200BF09B509AB09FE
:1004E000A10997098D098309790972094472697014
:1004F00073003C4261636B00730046696E616C205F
:100500006472697000730044726970203700730070
:10051000447269702036007300447269702035009F
:100520007300447269702034007300447269702053
:1005300033007300447269702032007300447269A2
:10054000702031001D0A130A090AFF09F509EB0999
:10055000E109D709D00954616E6B73003C426163B5
:100560006B00730054616E6B20382848326F29008D
:10057000730054616E6B20372848326F2900730076
:1005800054616E6B203628546F6E657229007300BB
:1005900054616E6B203528436C61722900730054DE
:1005A000616E6B20342848326F2900730054616EED
:1005B0006B203328426C63682900730054616E6BB2
:1005C00020322848326F2900730054616E6B20314D
:1005D000284465762900570A4D0A460A3C0A350A1E
:1005E0002E0A44617461003C4261636B0045726194
:1005F000736520636F756E74657220320000436FFF
:10060000756E746572203200457261736520636F88
:10061000756E74657220310000436F756E7465727B
:100620002031002000546F74616C00000021002410
:100630000027002A002D00300033000101000004D3
:100640000107010A0100002200250028002B002ECE
:10065000003100340002010000050108010B010017
:100660000020002300260029002C002F003200006B
:10067000010000030106010901050505050705083C
:10068000080808020202020A0A0808040404040115
:100690000101010101010103030303030303030437
:1006A0000707070C0C0C0C0C0C0C0C0202020206C7
:1006B000060606060606060B0B0B0B0B0B0B0B01B7
:1006C0000210202008081020401020408002010263
:1006D000010804020101020408102040808040202B
:1006E0001008040201800402018040201008040266
:1006F00001080402010102040810204080010204E4
:10070000081020408000000A0B02090C0D0E08079B
:1007100003040100000000000000000000000000D1
:1007200000000000000000000000000000000000C9
:100730000012111000000000000000000000000086
:1007400000000000000000000000000000280AF87F
:1007500007000014043506030044030000010004F0
:100760003C034D1E03005203FFFF0000024E03C472
:100770000C20005703020000004D1E03006103FF20
:10078000FF0000025D03C40C20006C0302000000A7
:100790003506090076030000000002720361026161
:1007A0003400008303000000000061340000870370
:1007B00000000000014D1E03009403FFFF00000530
:1007C0008A03C40C20009A030200000035060300CF
:1007D000A8030000000004A003C40C2000AE030224
:1007E00000000061340600B50304000000B403609B
:1007F0000200C8010061340600C40304000000C305
:10080000035F0200C8010061340600CB030400004E
:1008100000CA035E0200C8010035060300D90300C8
:1008200000000004D103C40C2000DD03020000001E
:1008300061340600E40304000000E3035C02EAF212
:1008400000000100000061340600F0030400000015
:10085000EF035A02EAF200000100000061340600D2
:10086000FD0304000000FC035802EAF2000001004E
:100870000000350603000C0400000000040404C45A
:100880000C20001204020000006134060019040468
:10089000000000180456020000E803010000006197
:1008A0003406002604040000002504540290E800E9
:1008B0000001000000613406003104040000003033
:1008C00004520278EC0000010000003506030052DB
:1008D00004000000000C3A04C40C20005C04020078
:1008E00000006134060063040400000062044A0250
:1008F0004CEB000001000000613406006B040400B2
:1009000000006A0448024CEB000001000000613462
:100910000600730404000000720446024CEB000061
:1009200001000000613406007B04040000007A042A
:1009300044024CEB00000100000061340600830417
:1009400004000000820442024CEB000001000000A1
:10095000613406008B04040000008A0440024CEB62
:100960000000010000006134060093040400000050
:1009700092043E024CEB00000100000061340600CE
:100980009B04040000009A043C024CEB00000100B0
:10099000000061340600A30404000000A204500219
:1009A0004CEB00000100000061340600B1040400BB
:1009B0000000B0044E024CEB000001000000613466
:1009C0000600B70404000000B6044C024CEB000023
:1009D0000100000035060300C6040000000004BE4C
:1009E00004C40C2000CC040200000061340600D4D2
:1009F0000404000000D2043A02FFFFE001010000FD
:100A00000035060300EC040000000009DA04C40C01
:100A10002000F2040200000061340600FA04040021
:100A20000000F80428020000E00101000000613429
:100A30000600070504000000050526020000E0018D
:100A400001000000613406001005040000000E05DE
:100A500024020000E00101000000613406001905D5
:100A600004000000170522020000E0010100000060
:100A70006134060022050400000020052002000069
:100A8000E00101000000613406002B0504000000B5
:100A900029051E020000E00101000000613406008B
:100AA00034050400000032051C020000E0010100D2
:100AB0000000613406003D05040000003B051A02F9
:100AC0000000E001010000003506030056050000AB
:100AD0000000094405C40C20005C05020000006110
:100AE000340600640504000000620518020000E0FE
:100AF000010100000061340600720504000000706E
:100B00000516020000E001010000006134060080CB
:100B100005040000007E0514020000E00101000051
:100B200000613406009005040000008E05120200EA
:100B300000E00101000000613406009F0504000090
:100B4000009D0510020000E0010100000061340674
:100B500000AD0504000000AB050E020000E001013D
:100B600000000061340600BC0504000000BA050C5A
:100B7000020000E0010100000061340600CA050423
:100B8000000000C8050A020000E001010000004D5D
:100B90001E0300E205FFFF000006D605C40C20007E
:100BA000E7050200000058340000ED0502000000D7
:100BB00035060600FE0500000000FD0508020000E5
:100BC0000000000000005834000008060200000089
:100BD000350606001906000000001806060200008F
:100BE0000000000000003506060025060000000099
:100BF0002306040200000000000000003F3811241A
:100C00001FBECFEFD1E2DEBFCDBF00E00CBF15E0CD
:100C1000A0E0B2E0E8EDF7E900E00BBF02C007900A
:100C20000D92A436B107D9F72BE0A4E6B5E001C0D8
:100C30001D92A43DB207E1F715E0CFEFD5E000E04B
:100C400006C021970109802FFE010E94A149CE3FD5
:100C5000D10780E00807A9F70E94B73F0C94EA4B40
:100C60000C94000090E080E0089590E080E008950A
:100C7000FC01108A118A128A138A148A158A168A2C
:100C8000178A14AA15AA16AA17AA13821482158203
:100C90001682108E118E128E138E0895815082311D
:100CA00008F05AC0E82FF0E08827E65AF94F8F4F36
:100CB0000C94A1497A067E066C0672067606AC068E
:100CC000810687068B069106950699069F06A30660
:100CD000AC06A706AD06B106809180008F778093A1
:100CE00080000895809180008F7DF9CF80918000F1
:100CF000877FF5CF84B58F7784BD089584B58F7DC8
:100D0000FBCF8091B0008F778093B00008958091E1
:100D1000B0008F7DF9CF809190008F778093900005
:100D20000895809190008F7DF9CF80919000877F0A
:100D3000F5CF8091A0008F778093A00008958091D7
:100D4000A0008F7DF9CF8091A000877FF5CF8091A3
:100D500020018F77809320010895809120018F7D5D
:100D6000F9CF80912001877FF5CFCF93DF93282F94
:100D700030E0F901EB5FF84F8491F901E154F94F4C
:100D8000D491F901E758F94FC491CC23A1F0811116
:100D90000E944E06EC2FF0E0EE0FFF1FE15AF94FD4
:100DA000A591B491EC91ED2381E090E009F480E00D
:100DB000DF91CF91089580E090E0FACF1F93CF9319
:100DC000DF93282F30E0F901EB5FF84F8491F901B0
:100DD000E154F94FD491F901E758F94FC491CC236C
:100DE000A9F0162F81110E944E06EC2FF0E0EE0FB5
:100DF000FF1FEB5BF94FA591B4918FB7F894EC917D
:100E0000111108C0D095DE23DC938FBFDF91CF9105
:100E10001F910895DE2BF8CF282FEEE0F7E0E49144
:100E2000E150E23108F0C8C0F0E08827E55EF84FF5
:100E30008F4F0C94A1492D073207370743074F07FF
:100E4000DC075B0763076B07770783078F07A0073C
:100E5000AC07DC07B807C407D00784B5806884BD39
:100E600027BD089584B5806284BD28BD0895809112
:100E70008000806880938000422F592F5093890012
:100E80004093880008958091800080628093800064
:100E9000422F592F50938B0040938A0008958091E0
:100EA0008000886080938000422F592F50938D00DE
:100EB00040938C0008958091B00080688093B000CA
:100EC0002093B30008958091B00080628093B000B9
:100ED0002093B400089580919000806880939000E2
:100EE000422F592F50939900409398000895809174
:100EF0009000806280939000422F592F50939B0066
:100F000040939A00089580919000886080939000AB
:100F1000422F592F50939D0040939C00089580913B
:100F2000A00080688093A0008091A0008F7B8093B8
:100F3000A000422F592F5093A9004093A800089574
:100F40008091A00080628093A000422F592F50937F
:100F5000AB004093AA0008958091A0008860809320
:100F6000A000422F592F5093AD004093AC0008953C
:100F700080912001806880932001422F592F509347
:100F80002901409328010895809120018062809377
:100F90002001422F592F50932B0140932A0108958D
:100FA00080912001886080932001422F592F509317
:100FB0002D0140932C01089560E089E00C94DE0639
:100FC000CF93DF9390E0FC01E154F94F24918758CF
:100FD000994FFC0184918823C9F090E0880F991FF4
:100FE000FC01E55DF94FA591B491FC01EB5BF94F74
:100FF000C591D49161110DC09FB7F8948C91209543
:1010000082238C938881282328839FBFDF91CF91EF
:101010000895623051F49FB7F8943C91822F8095E7
:1010200083238C93E8812E2BEFCF8FB7F894EC912C
:101030002E2B2C938FBFEACF3FB7F8948091EA050F
:101040009091EB05A091EC05B091ED0526B5A89B1C
:1010500005C02F3F19F00196A11DB11D3FBFBA2F4A
:10106000A92F982F8827BC01CD01620F711D811D0A
:10107000911D42E0660F771F881F991F4A95D1F78F
:1010800008958F929F92AF92BF92CF92DF92EF928C
:10109000FF926B017C010E941C084B015C01C11492
:1010A000D104E104F104B9F00E941C08681979091F
:1010B0008A099B09683E73408105910580F321E010
:1010C000C21AD108E108F10888EE880E83E0981E64
:1010D000A11CB11CE4CFFF90EF90DF90CF90BF90A8
:1010E000AF909F908F9008952FB7F8946091E60588
:1010F0007091E7058091E8059091E9052FBF08956B
:101100000F931F93CF93DF93EC010E9474086887BD
:1011100079878A879B87E881F9810484F585E02DAA
:10112000CE01199597FF15C00E947408088519858E
:101130002A853B85601B710B820B930B0C811D81F3
:101140002E813F81601771078207930720F38FEF8D
:101150009FEFDF91CF911F910F9108954F925F9272
:101160006F927F92AF92BF92CF92DF92EF92FF92F7
:101170000F931F93CF93DF938C01C8010E948008C7
:10118000EC0197FD98C0D801ED91FC910284F385A4
:10119000E02D8D32910509F052C0412C512C80E890
:1011A000682E8FE3782EC12CD12C7601B12CA12C86
:1011B000C130D10559F1CD32D10509F44BC0CE3241
:1011C000D10509F44AC0CE01C0970A97F8F4AAE005
:1011D000B0E0A70196010E94C8476E01DD0FEE083E
:1011E000FF08C60ED71EE81EF91EB0E3CB1AD108C1
:1011F000E108F108BB2051F02DEC3CEC4CEC5DE338
:10120000C301B2010E94BB462B013C01D801ED9104
:10121000FC910284F385E02DC8011995C8010E9454
:101220008008EC01C0970A9718F2CE32D105C1F4BC
:10123000BB2009F4BDCFBA2CA11018C025C0C0979F
:101240000A9708F4AACFCE32D10509F4A6CFC80177
:10125000199593CFAA24A394D9CFBB24B394D6CF06
:10126000C130D10509F4A4CFAA2041F0F094E09454
:10127000D094C094C11CD11CE11CF11CC701B60163
:101280000E945C46BB2041F0C701B6010E945C464B
:10129000A30192010E94BB46DF91CF911F910F9154
:1012A000FF90EF90DF90CF90BF90AF907F906F90C6
:1012B0005F904F90089560E070E0CB01EDCFDC01CE
:1012C000ED91FC910190F081E02D1994AF92BF92C5
:1012D000CF92DF92EF92FF920F931F93CF93DF9302
:1012E0006C017B018B01040F151FEB015E01AE1831
:1012F000BF08C017D10759F06991D601ED91FC9153
:101300000190F081E02DC6011995892B79F7C5016F
:10131000DF91CF911F910F91FF90EF90DF90CF90D1
:10132000BF90AF900895FC01538D448D252F30E080
:10133000842F90E0821B930B541710F0CF960895E2
:1013400001970895FC01918D828D981761F0A28D0F
:10135000AE0FBF2FB11D5D968C91928D9F5F9F73D5
:10136000928F90E008958FEF9FEF0895FC01918D8B
:10137000828D981731F0828DE80FF11D858D90E0F8
:1013800008958FEF9FEF0895FC01918D228D892F95
:1013900090E0805C9F4F821B91098F73992708957D
:1013A00080EF95E00E94C40921E0892B09F420E038
:1013B000822F0895FC01A48DA80FB92FB11DA35A47
:1013C000BF4F2C91848D90E001968F739927848F65
:1013D000A689B7892C93A089B1898C918370806488
:1013E0008C93938D848D981306C00288F389E02D29
:1013F00080818F7D80830895EF92FF920F931F93DA
:10140000CF93DF93EC0181E0888F9B8D8C8D9813B7
:101410001AC0E889F989808185FF15C09FB7F894C3
:10142000EE89FF896083E889F9898081837080640F
:1014300080839FBF81E090E0DF91CF911F910F915A
:10144000FF90EF900895F62E0B8D10E00F5F1F4F69
:101450000F731127E02E8C8D8E110CC00FB607FC78
:10146000FACFE889F989808185FFF5CFCE010E9406
:10147000DA09F1CFEB8DEC0FFD2FF11DE35AFF4F91
:10148000F0829FB7F8940B8FEA89FB898081806294
:10149000CFCFCF93DF93EC01888D8823B9F0AA8951
:1014A000BB89E889F9898C9185FD03C0808186FD1F
:1014B0000DC00FB607FCF7CF8C9185FFF2CF80816E
:1014C00085FFEDCFCE010E94DA09E9CFDF91CF9100
:1014D000089580E090E0892B29F00E94D0098111C5
:1014E0000E94000080E090E0892B49F080E090E0CD
:1014F000892B29F00E94000081110E94000080E0E9
:1015000090E0892B49F080E090E0892B29F00E943F
:10151000000081110E94000080E090E0892B49F0DA
:1015200080E090E0892B29F00E94000081110C944A
:101530000000089520919305260F3327331F213291
:101540003105ECF42091B705FC0190E080E02430F7
:1015500069F082E00895A09193052191AC014D5866
:101560005A4FA40FB52FB11D2C930196861798F3EF
:1015700080919305680F6093930580E0089581E062
:10158000089508958FEF9FEF08958FEF9FEF0895CF
:1015900080916C0590E09195819591090895CF9384
:1015A000DF93CB01EA01642F0E949A0ACE01DF91FA
:1015B000CF910895CF93DF931F92CDB7DEB76983A4
:1015C00061E0CE0101960E949A0A81E090E00F90BE
:1015D000DF91CF910895AF92BF92CF92DF92EF92B9
:1015E000FF920F931F93CF93DF936B017A01EC016E
:1015F000C859DA4F28813CE0389F8001399F100D8F
:101600001124A090440BB12C27FF1FC0FB011182B5
:10161000108288818F5F888388819801280F311D0F
:1016200087FD3A95F6012A153B051CF488818C301C
:10163000C4F180819181049680349C4908F473C080
:10164000F60180819181049670C088819801280FED
:10165000311D87FD3A952A153B05DCF68881A801E6
:10166000480F511D87FD5A95FA01EE0FFF1FE40F39
:10167000F51FEC54F54F808186FFCBCF8881F801B0
:10168000E80FF11D87FDFA95CF01EE0FFF1FE80F60
:10169000F91FEC54F54F808160E08F730E94DE06E5
:1016A000B8CF808191812881A801420F511D27FD6B
:1016B0005A959A01FA01EE0FFF1FE20FF31FEC5447
:1016C000F54F21813281820F931FF701918380832F
:1016D00088819801280F311D87FD3A95F901EE0F99
:1016E000FF1FE20FF31FEC54F54F808186FF22C0ED
:1016F0008881080F111D87FD1A95F801EE0FFF1F55
:10170000E00FF11FEC54F54F808161E08F73DF91A2
:10171000CF911F910F91FF90EF90DF90CF90BF90EE
:10172000AF900C94DE0680E49CE9F70191838083FE
:101730008FEF8883DF91CF911F910F91FF90EF90F2
:10174000DF90CF90BF90AF900895DC01ED91FC91B8
:101750000088F189E02D1994DC01ED91FC91019054
:10176000F081E02D1994FF920F931F93CF93DF9395
:101770008C01EB01F42E642FDC0111968D919C916C
:101780000E94A50BDC011296ED91FC911397369601
:10179000259134912C233D23232B71F0ED91FC9165
:1017A0000284F385E02D2F2DA801BE01DF91CF919A
:1017B0001F910F91FF90199490E080E0DF91CF91FD
:1017C0001F910F91FF9008950F931F93CF93DF9375
:1017D0008C01D0E0C0E0D8018D919C911197C81781
:1017E000D9079CF4CE01880F991F1296ED91FC91B8
:1017F000E80FF91F85919491DC01ED91FC9106842D
:10180000F785E02D19952196E6CFDF91CF911F91B5
:101810000F9108955F926F927F928F929F92AF92F5
:10182000BF92CF92DF92EF92FF920F931F93CF93CD
:10183000DF93CDB7DEB76C01F62E572E4A01390182
:10184000081519050CF1D601ED91FC910288F38978
:10185000E02D20E0482D6F2DC6011995AF2CB52C39
:101860006A147B046CF0D601ED91FC910190F0813B
:10187000E02D6E2DC6011995BFEFAB1ABB0AF0CF54
:101880008FEF881A980ADCCFC601DF91CF911F91A4
:101890000F91FF90EF90DF90CF90BF90AF909F900F
:1018A0008F907F906F905F900895CF93DF93CDB727
:1018B000DEB7DF91CF910895EF92FF920F931F93C0
:1018C000CF93DF93EC01142F7901E881F98104882B
:1018D000F589E02D64E070E01995E881F9810190C7
:1018E000F081E02D60E2112331F060919806EF283D
:1018F00011F060919706CE01DF91CF911F910F916A
:10190000FF90EF9019940895BF92CF92DF92EF92DB
:10191000FF920F931F93CF93DF937C018B01B42E23
:10192000FB01C42E440FDD08EF0121966491611183
:101930000EC0C01BD10B8C2F8150DF91CF911F9116
:101940000F91FF90EF90DF90CF90BF900895BB2054
:1019500029F0E01BF10BEC15FD055CF7D701ED91CB
:10196000FC910190F081E02DC7011995FE01DCCFBB
:1019700080E008950895DC011296ED91FC91329675
:10198000859194918170089581E090E00895DC0143
:10199000CB01BA011296ED91FC91139725913491E8
:1019A000AD01F9011994FC0186810895DC011796B7
:1019B0002C9117971496ED91FC91B5E02B02E00D58
:1019C000F11D1124818192810895CF93DF93EC0161
:1019D0000E94D60C2F81AC81BD8135E02302A00D81
:1019E000B11D1124EC01E881F9810088F189E02D15
:1019F0006C91DF91CF911994DC011296ED91FC91DD
:101A00003296859194919695879596958795817054
:101A10000895DC011296ED91FC9132968591949196
:101A20006823792381E0672B09F480E00895FC01A5
:101A3000F8948481958120852230D1F49C01217015
:101A4000332735832483789420852430D1F49595E9
:101A500087959595879523852223C1F02185328529
:101A6000232F332797FF15C0C901809590950895BE
:101A7000243021F49C0123703327E3CF1582148294
:101A8000E2CF223041F795958795E5CF30E020E011
:101A9000E9CF009711F0C90101960895CF93DF9324
:101AA000FC012781222359F1EC0161E080850E942D
:101AB000E00761E089850E94E0078F81843011F0A2
:101AC0008830B1F461E08A850E94E00761E08B858F
:101AD0000E94E0078FA58F3F91F061E00E94E00730
:101AE0006EA581E068278FA5DF91CF910C94DE066B
:101AF000833011F0863071F761E08A85E9CFDF919C
:101B0000CF910895CF93DF93FC0127812223A9F081
:101B1000EC010190F081E02D0284F385E02D60E07E
:101B200019958FA58F3F49F061E00E94E0076EA5EF
:101B30008FA5DF91CF910C94DE06DF91CF910895B0
:101B4000DC01ED91FC911197228533854770552773
:101B500066277727415051096109710947305105BE
:101B60006105710570F4FA018827E654F24F8F4F32
:101B70000C94A149C50DC70DC90DCB0DCD0DCF0DD1
:101B8000D10D61E0CD01F901199465E0FBCF64E06E
:101B9000F9CF66E0F7CF62E0F5CF6AE0F3CF68E017
:101BA000F1CF69E0EFCFCF93DF93EC01CB01BA0126
:101BB00026E030E040E050E00E94A9476230710525
:101BC0008105910589F16CF4611571058105910517
:101BD000D1F06130710581059105F9F0DF91CF9168
:101BE0000895643071058105910561F124F1653036
:101BF00071058105910591F7E881F9810284F385EA
:101C0000E02D66E006C0E881F9810284F385E02DCD
:101C100064E0CE01DF91CF911994E881F9810284CB
:101C2000F385E02D65E0F5CFE881F9810284F38545
:101C3000E02D61E0EECFE881F9810284F385E02DAB
:101C400063E0E7CFE881F9810284F385E02D62E06B
:101C5000E0CFDC01ED91FC910284F385E02D43702F
:101C6000552766277727423051056105710571F0C8
:101C7000433051056105710559F041305105610549
:101C8000710511F065E0199466E0FDCF6AE0FBCFC5
:101C900069E0F9CFCF93DF93EC01CB01BA0123E0E8
:101CA00030E040E050E00E94A947613071058105B5
:101CB000910599F06230710581059105A9F0672BB6
:101CC000682B692BC1F4E881F9810284F385E02D4A
:101CD00064E0CE01DF91CF911994E881F98102840B
:101CE000F385E02D61E0F5CFE881F9810284F38589
:101CF000E02D62E0EECFDF91CF910895DC01ED9110
:101D0000FC910284F385E02D4370552766277727E1
:101D1000423051056105710571F04330510561058F
:101D2000710559F0413051056105710511F062E00E
:101D3000199463E0FDCF61E0FBCF60E0F9CFCF9372
:101D4000DF93EC01E881F9810284F385E02D8A813B
:101D500060E0811162E0CE011995E881F981028489
:101D6000F385E02D8A8161E0811163E0CE01199550
:101D70008CA59DA58230910538F0880F991F880F9A
:101D8000991F05970197F1F7E881F9810284F3859E
:101D9000E02D8A8160E0811162E0CE01DF91CF9178
:101DA0001994CF93DF93EC0120E030E0A901688D16
:101DB000798D8A8D9B8D0E94214918162CF4E8A9F3
:101DC000F9A9DF91CF911994EAA9FBA9FACFCF9293
:101DD000DF92EF92FF920F931F93CF93DF93DC017B
:101DE0001796CC91C43039F0C83059F1C33019F08E
:101DF000C63049F1C2E08C01085F1F4FF12CE12C85
:101E0000C62ED12CD1E0F8016481C6010E2C02C08F
:101E1000959587950A94E2F780FD6D270F5F1F4F18
:101E200080810E94DE06BFEFEB1AFB0AEC1658F326
:101E3000DF91CF911F910F91FF90EF90DF90CF90A6
:101E40000895C4E0D8CFC3E0D6CFDC011796EC915B
:101E50001797E93008F042C0F0E08827ED5CF04FBA
:101E60008F4F0C94A1493C0F440F4B0F520F590F49
:101E70006E0F600F6E0F670FED91FC911197068446
:101E8000F785E02DCD011994ED91FC911197008813
:101E9000F189E02DF7CFED91FC9111970288F3893C
:101EA000E02DF0CFED91FC9111970488F589E02D9C
:101EB000E9CFED91FC9111970688F789E02DE2CFEB
:101EC000ED91FC911197008CF18DE02DDBCFED9120
:101ED000FC911197028CF38DE02DD4CF08954F9291
:101EE0005F926F927F928F929F92AF92BF92CF92AA
:101EF000DF92EF92FF920F931F93CF93DF93EC014A
:101F0000CC88DD88EE88FF8888899989AA89BB8971
:101F1000C81AD90AEA0AFB0A688D798D8A8D9B8DC9
:101F20009B01AC010E94BB464B015C0168A179A1F9
:101F30008AA19BA19B01AC010E940D489B01AC01B1
:101F4000C501B4010E9479480E94EB48C114D10434
:101F5000E104F10409F0B6C0623071058105910514
:101F60000CF0D0C01B821C821D821E82188E198E1E
:101F70001A8E1B8E1CAA1DAA1EAA1FAAC12CD12C08
:101F80007601C701B601DF91CF911F910F91FF90AC
:101F9000EF90DF90CF90BF90AF909F908F907F9009
:101FA0006F905F904F900895101611061206130659
:101FB000B4F46C157D058E059F051CF42A81211152
:101FC000A1C09B01AC0188279927DC01821B930BE0
:101FD000A40BB50B8CAB9DABAEABBFAB93C00115E7
:101FE00011052105310509F48DC06C157D058E059F
:101FF0009F050CF087C08A81882309F483C030953F
:102000002095109501951F4F2F4F3F4F0CAB1DABE7
:102010002EAB3FAB77C0011511052105310509F441
:1020200071C08824992454018C189D08AE08BF08FB
:10203000681579058A059B050CF064C08A818111B9
:1020400061C0DDCFCCACDDACEEACFFACA70196013E
:10205000C701B6010E940D482B013C01C501B40126
:102060000E945C4620E030E040E850E40E94BB461D
:1020700020E030E040E85FE30E940D489B01AC01A6
:10208000C301B2010E9479489B01AC01C701B601AE
:102090000E940C483B016C01FE01E05CFF4FE080B8
:1020A000F180028113819701A8010E94214918162D
:1020B00014F473018601C701D8018CAF9DAFAEAF98
:1020C000BFAF3AC00CA91DA92EA93FA91C141D041D
:1020D0001E041F040CF468CF101611061206130616
:1020E0000CF099CF0027112798010C191D092E0912
:1020F0003F0960177107820793070CF062CF2A81AE
:1021000021115FCF8CA89DA8AEA8BFA8811491040F
:10211000A104B10409F096CF88AD99ADAAADBBADCD
:102120008CAF9DAFAEAFBFAF81E01C141D041E0489
:102130001F040CF080E08A833FEF831A930AA30AFE
:10214000B30A8CAA9DAAAEAABFAA8CAC9DACAEACB9
:10215000BFACC501B4010E94F2486B017C01CB8287
:10216000DC82ED82FE82A501940160E074E284E7E6
:1021700099E40E947948688F798F8A8F9B8F2A8192
:102180002111FFCE9058688F798F8A8F9B8FF9CE5F
:10219000CF92DF92EF92FF92CF93DF93EC018B818E
:1021A0009C81AD81BE81892B8A2B8B2B99F10E945A
:1021B0001C086B017C0188A599A5AAA5BBA5B70140
:1021C000A601481B590B6A0B7B0B8B819C81AD814F
:1021D000BE81481759076A077B07E0F0888999890B
:1021E000AA89BB892A812223B1F10196A11DB11DC3
:1021F000888B998BAA8BBB8B488959896A897B8983
:10220000CE010E94250FC8A6D9A6EAA6FBA6CE013C
:102210000E946F0F20E030E0A901688D798D8A8DD2
:102220009B8D0E94554681111AC081E0CC88DD88C3
:10223000EE88FF88488959896A897B89C416D50642
:10224000E606F70609F480E0DF91CF91FF90EF906A
:10225000DF90CF9008950197A109B109C9CF81E01E
:10226000F3CFCF92DF92EF92FF920F931F93CF9312
:10227000DF93EC016A017B0120E030E0A901CB0192
:10228000B6010E94554687FF04C0F7FAF094F7F8AC
:10229000F094A70196016C8D7D8D8E8D9F8D0E948F
:1022A0005546882309F446C0CC8EDD8EEE8EFF8E17
:1022B0008E01005C1F4FA701960160E074E284E785
:1022C00099E40E947948F801608371838283938343
:1022D0008CA99DA9AEA9BFA9181619061A061B0636
:1022E0004CF5688D798D8A8D9B8D9B01AC010E9488
:1022F000BB466B017C0168A179A18AA19BA19B01CE
:10230000AC010E940D489B01AC01C701B6010E94BF
:1023100079480E94EB486CAB7DAB8EAB9FABCE0196
:10232000DF91CF911F910F91FF90EF90DF90CF90B1
:102330000C946F0FDF91CF911F910F91FF90EF9051
:10234000DF90CF9008950F931F93FC0104891589A6
:1023500026893789041715072607370741F0448B6C
:10236000558B668B778B1F910F910C946F0F1F917C
:102370000F9108954F925F926F927F928F929F92EA
:10238000AF92BF92CF92DF92EF92FF92CF93DF9303
:10239000EC01488C598C6A8C7B8C20E030E0A901E0
:1023A000C301B2010E945546882309F447C0A30126
:1023B0009201C301B2010E94BB466B017C0168A17E
:1023C00079A18AA19BA19B01AC010E940D489B01B0
:1023D000AC01C701B6010E9479480E94EB486B012D
:1023E0007C0188889988AA88BB8820E030E0A90110
:1023F000C301B2010E942149B701A6011816CCF40D
:102400004F5F5F4F6F4F7F4F480D591D6A1D7B1DFA
:10241000CE01DF91CF91FF90EF90DF90CF90BF90F2
:10242000AF909F908F907F906F905F904F900C94A3
:10243000A3114095509560957095E6CFDF91CF91AF
:10244000FF90EF90DF90CF90BF90AF909F908F90D4
:102450007F906F905F904F9008950895809108014C
:102460008E7F809308014AEC5EEF6FEF7FEF89E388
:1024700097E00E94A311809103018095817029F457
:1024800089E397E00E94C810F6CF89E397E00E94A5
:10249000BA1189E397E00E94380689E397E00E9429
:1024A000C81080910801816080930801089580918F
:1024B00008018E7F8093080144E051E060E070E005
:1024C00089E397E00E94A31140914D0750914E0778
:1024D00060914F07709150078091490790914A078A
:1024E000A0914B07B0914C07481759076A077B0723
:1024F00029F089E397E00E94C810E6CF8091080197
:1025000081608093080108952FE5E3E0F2E0DC01AB
:1025100001900D922A95E1F70895DC011D96ED9149
:10252000FC9180819181DC01ED91FC910684F7851D
:10253000E02D1994CF93DF93EC01ED85FE8580812A
:102540009181DC01ED91FC910084F185E02D1995DC
:10255000892B69F0ED85FE8580819181DC01ED910B
:10256000FC910484F585E02DDF91CF9119948FEFD4
:102570009FEFDF91CF910895CF93DF93EC01ED852D
:10258000FE8580819181DC01ED91FC910084F185D3
:10259000E02D1995892BD9F0ED85FE8580819181FB
:1025A000DC01ED91FC910284F385E02D19952091D9
:1025B0000002309101022817390761F02FEF3FEF39
:1025C0003093010220930002DF91CF9108958FEFA5
:1025D0009FEFEDCF8FEF9FEFF7CFDC011D96ED91D1
:1025E000FC9180819181DC01ED91FC910084F18569
:1025F000E02D1994DC011D96ED91FC918081918173
:10260000DC01ED91FC910680F781E02D199490E0BA
:1026100080E00895CF93DF93DC0116968C91169796
:10262000811111C01296ED91FC9113973C96C591C2
:10263000D49181E018964D915C912881398142179F
:10264000530709F480E0DF91CF910895CF93DF9392
:10265000DC0116961C9216971296ED91FC91139739
:102660003C96C591D4918881998119969C938E93BB
:102670001897DF91CF910895CF93DF93DC011696E1
:102680008C91169781110EC01296ED91FC911397C3
:102690003C96C591D49181E018962C91988129138C
:1026A00001C080E0DF91CF910895CF93DF93DC01EB
:1026B00016961C9216971296ED91FC9113973C96E4
:1026C000C591D491888118968C93DF91CF9108950C
:1026D000CF92DF92EF92FF920F931F93CF93DF93EE
:1026E0000E9474086B017C018091910A882399F003
:1026F00080918F0A9091900A02979093900A80930C
:102700008F0A80918F0A9091900A97FF04C01092CF
:10271000900A10928F0A8091860A0E94B506209135
:10272000890AC3E02817190609F0C0E08091870ADA
:102730000E94B5062091890A2817190611F481E034
:10274000C82780918C0A90918D0A8C1B80FFA4C0B1
:102750000C2E000CDD0BD0938D0AC0938C0A2091B7
:102760008A0A30918B0A8270082E000C990B01970F
:10277000820F931F90938B0A80938A0A81E0909135
:10278000910A992391F0882381F080918F0A90918A
:10279000900A883E9B4048F480918F0A9091900A5D
:1027A00049969093900A80938F0A8091880A882393
:1027B00009F469C04091980A5091990A60919A0A67
:1027C00070919B0A97018601041B150B260B370B92
:1027D000B901A8014A3051056105710508F453C0DB
:1027E000C092980AD092990AE0929A0AF0929B0AB3
:1027F0000E94B5062091890A2817190691F4809144
:10280000950A9091960A01969093960A8093950A5C
:102810008937910530F083E090E09093930A80939C
:10282000920A8091880A0E94B5062091890A31E0B7
:10283000232728171906C1F48091950A9091960ACA
:10284000892B71F08091920A9091930A039731F548
:1028500084E090E09093930A8093920A1092970AF2
:102860001092960A1092950A8091970A882359F03F
:1028700082508093970A811106C085E090E0909382
:10288000930A8093920ADF91CF911F910F91FF904D
:10289000EF90DF90CF90089580E071CF8091970AFC
:1028A000823028F08C33E0F686E090E0D3CF809140
:1028B000940A811104C081E08093970AD1CF8CE300
:1028C000FBCF70E0FC01718B608B81E090E008959C
:1028D000CF93DF93EC01E881F9810484F585E02D45
:1028E00019951D8A1C8AE0919906F0919A06238514
:1028F0002817190661F44F8528893989240F311D5D
:1029000047FD3A95398B288BDF91CF910895268525
:1029100028171906C9F74F8528893989241B3109D9
:1029200047FD3395EFCFDC01ED91FC910484F585F3
:10293000E02D199521E030E0019611F430E020E01F
:10294000C9010895CF93DF93EC018D859E850E9488
:10295000170D2A893B89820F931F9B8B8A8B8C8949
:102960009D89892B69F4ED85FE858485958524856F
:1029700035852330310511F0158614869D8B8C8B9F
:10298000DF91CF910895CF93DF93EC011D8A1C8ACC
:102990000E94A2148A899B89998B888BDF91CF91A1
:1029A0000895CF93DF93EC010E94A2148C899D8936
:1029B0008530910549F4E0919906F0919A06808559
:1029C00090E0DF91CF910895069731F4E091990658
:1029D000F0919A068581F4CF1D8A1C8A2A893B8949
:1029E00088899989281B390B8F85082E000C990B33
:1029F00044275527481B590B4217530734F0E091E1
:102A00009906F0919A068685DBCF2817390734F0AE
:102A1000E0919906F0919A068385D2CF8FEF9FEFD0
:102A2000D0CF80E00895DC011D968D919C91DC0152
:102A3000ED91FC910190F081E02D19940895DC0155
:102A40001296ED91FC913A9684910895DC011296CC
:102A5000ED91FC913B9685919491E62FEE0FFF0B43
:102A6000E80FF91F85919491089590E080E0089512
:102A7000FC0116820895DC011296ED91FC913896C6
:102A8000859194918170089580E0089590E080E0B0
:102A900008958F929F92AF92BF92EF92FF920F9301
:102AA0001F93CF93DF93F82E61E08AE00E94DE0649
:102AB0008091CD0B803308F052C061E08BE00E9422
:102AC000E0078091CD0B282F30E0F901EE0FFF1FBA
:102AD000E20FF31FEC54F54F9081907C9B60908344
:102AE0001092CE0B1092CF0B2CE0622F0E948149E6
:102AF000829FB001112430E020E0AB01420F531F50
:102B0000FA01EE0FFF1FE40FF51FEC54F54F908113
:102B100096FD17C02F5F3F4F2C30310571F7813084
:102B200009F093C01092800082E08093810010929F
:102B3000850010928400B19A80916F00826080932A
:102B40006F00E091CD0B8E2F90E0FC01EE0FFF1F88
:102B5000E80FF91FEC54F54F808180648083E0908A
:102B6000CD0B8FE28E1508F451C08091CF0B08E594
:102B700012E0081B110987FD1395000F111F000FAC
:102B8000111F8091CE0BC8E8D0E0C81BD10987FD8A
:102B9000D395CC0FDD1FCC0FDD1F4E010D2E000C89
:102BA000AA08BB08AF2DB0E0A53BB10514F0A4EB1B
:102BB000B0E09801012E000C440B550B281939097F
:102BC0004A095B090E94D34724EB30E040E050E023
:102BD0000E94A947820E931EA41EB51E8C169D0648
:102BE0002CF0E801801691060CF4E4012297CC0F3A
:102BF000DD1F2FB7F894F12CF701EE0FFF1FEE0D3C
:102C0000FF1DEC54F54FD283C1832FBF68EE73E0F4
:102C100080E090E00E944108E091CD0B8E2F90E083
:102C2000FC01EE0FFF1FE80FF91FEC54F54F8081F8
:102C30008F7B8083DF91CF911F910F91FF90EF9059
:102C4000BF90AF909F908F900895823061F4109262
:102C5000900080939100109295001092940088BB90
:102C6000809371006ECF833069F41092A00082E0EF
:102C70008093A1001092A5001092A40089BB8093BC
:102C800072005FCF81115DCF1092200182E08093AE
:102C9000210110922501109224018ABB80937300B8
:102CA00050CFAB01BC0185E49BE00E94A311409191
:102CB000590B50915A0B60915B0B70915C0B80919A
:102CC000550B9091560BA091570BB091580B48178C
:102CD00059076A077B0729F085E49BE00E94C8102A
:102CE000E6CF0895AB01BC0189E89BE00E94A311E7
:102CF00040919D0B50919E0B60919F0B7091A00B8A
:102D00008091990B90919A0BA0919B0BB0919C0B89
:102D1000481759076A077B0729F089E89BE00E945A
:102D2000C810E6CF0895CF92DF92EF92FF920F93F3
:102D30001F93CF93DF93EC018B01888199810E94CF
:102D4000E40B1D870C87FF24F394F986CE010E94C3
:102D5000D60CDC011696FC920115110549F1E880AC
:102D6000F980D0E0C0E0F70180819181C817D907D0
:102D7000FCF40280F381E02DCE01880F991FE80F4B
:102D8000F91FC590D49070E060E0C601F801199574
:102D9000892B71F4D60118968C9180FF02C0219680
:102DA000E2CF61E070E0C601F80119950197B9F72B
:102DB000DF91CF911F910F91FF90EF90DF90CF9017
:102DC0000895CF93DF93EC018E859F8521E0DC0190
:102DD00016962C930E94BB0C9F81882309F440C057
:102DE000992369F191509F832C813D81F90145E040
:102DF0009402E00DF11D1124CF01408164E070E0E8
:102E00000E94B30BCE010E94D60C21E0FC01268368
:102E1000CE010E94D60C9F878E87DC011296ED9121
:102E2000FC9132968591949184FF03C0CE010E945B
:102E3000E11661E070E08FEFDF91CF91089589890D
:102E4000882301F38C819D81DC014C9164E070E06A
:102E50000E94B30B6A857B85CE010E949316D2CF68
:102E60002C813D81F90145E09402E00DF11D112412
:102E7000CF01408164E070E00E94B30B8A819B81A6
:102E8000DC01ED91FC910684F785E02D60E0199559
:102E9000B9CF0F931F93CF93DF93EC018B012330B6
:102EA000310509F463C0F0F42130310511F122300D
:102EB000310509F18E81882309F46AC0D80113967F
:102EC000ED91FC91828960E071E0811102C062E0C5
:102ED00070E0F8014081C801DF91CF911F910F91FF
:102EE0000C94B30B2430310509F44AC02730310566
:102EF00009F781E08F838F81882321F11F8281E090
:102F00008E83E881F9810288F389E02DCE0119953D
:102F1000D8011396ED91FC91828960E071E08111F6
:102F200002C062E070E0F8014081C8010E94B30B6A
:102F3000D80113968D919C91DF91CF911F910F91A4
:102F40000C94E116D8011396ED91FC9180898111C2
:102F5000D5CFE881F9810088F189E02DCE0119955E
:102F6000882361F281E08F838E83A4CFE881F98189
:102F70000488F589E02D61E070E0CE0119959ACFC3
:102F8000E881F9810488F589E02D6FEF7FEFF5CFB7
:102F9000DF91CF911F910F910895DF92EF92FF92F1
:102FA0000F931F93CF93DF93EC010E94E50CDC019C
:102FB00014968D919C91892B09F4B1C0CE010E9489
:102FC000E50C8C01DC01ED91FC91E084F184CE01F3
:102FD0000E94E50C2F814C815D81B5E02B02400DF4
:102FE000511D11249C0161E070E0C801F7011995A1
:102FF000892B09F094C0CE010E94E50C7C01DC0114
:103000001296ED91FC913296059114910270112760
:103010000E94BB0CD82E2F818C819D81B5E02B02A4
:10302000800D911D1124FC01408162E070E00E943E
:10303000B30B009709F063C0DD2009F473C0012BC6
:1030400061F402E010E0B8018FEFDF91CF911F91A2
:103050000F91FF90EF90DF9008959F818E819817D8
:10306000A4F5CE010E94D60C11E0DC0116961C934B
:10307000CE010E94E50C2F812F5F2F83EC81FD8113
:10308000B5E02B02E00DF11D1124928381831082A3
:10309000CE010E94D60CFC011683D701ED91FC9164
:1030A00000851185CE010E94E50C2F814C815D8148
:1030B000B5E02B02400D511D11249C0162E070E02F
:1030C000C701F801199502E006C066E47EE1CE0171
:1030D0000E94931600E010E0FF86EE8681E0D701A3
:1030E00016968C93D110AFCF8A819B81DC01ED9134
:1030F000FC910684F785E02D61E01995A4CF019736
:1031000051F4CE010E94E50C0E94BB0C811103C05A
:10311000CE010E94E116012B09F493CFD4CF60E0D9
:1031200070E092CF012B09F48CCFFF86EE8681E010
:10313000F701868302E010E0D7CF9F92AF92BF9253
:10314000CF92DF92EF92FF920F931F93CF93DF9373
:103150008C016A01EA01E62EDC019C9043305105A6
:1031600009F487C0B0F44130510509F4D9C04230A8
:10317000510509F4DEC0BE018E2DDF91CF911F9164
:103180000F91FF90EF90DF90CF90BF90AF909F9006
:1031900008954430510509F497C0CA010797029772
:1031A00050F767FDE8CFF801818192810E94AC0B56
:1031B000E8160CF75601FE2CD80111968D919C91C2
:1031C000DC011296ED91FC913296259134912C7090
:1031D0003327232B09F4B3C021E0FC012683F80137
:1031E00041815281DA0112968D919C91FC013696B3
:1031F0002591349127FF08C0FC0125913491B80135
:1032000080E890E0F9011995492D60E270E0C8016D
:103210000E94B30BD801FC92B7E0CB1AD108E501AC
:10322000E2E0CE16D10448F4D80113968D919C911A
:103230000E94CD17C62FD72FE82E4F2D60E170E0EA
:10324000C8010E94B30BF80141815281DA01129644
:103250008D919C91FC0136962591349126FF8BCF60
:10326000FC0125913491B80180E490E0F9011995B1
:1032700082CFFC01818192810E94AC0B882309F4EA
:103280007ACFFF24F394F90CD80111968D919C917B
:103290000E94AC0BF8168CF0F80181819281DC0160
:1032A0001296ED91FC9138962591349120FD58C0ED
:1032B0000E94AC0BFF24FA94F80E33E0A32EB12C3D
:1032C0009F107ACFE50157CFFC0181819281911047
:1032D00009C0DC011296ED91FC9132962591349152
:1032E00024FD1EC00E94AC0B882309F444CFFF24A8
:1032F000FA94F90CF7FE11C0F80181819281DC018A
:103300001296ED91FC9138962591349120FF2DC0B5
:103310000E94AC0BFF24FA94F80E94E0A92ECFCFB4
:10332000F801838194810E94E116C62FD72FE82EE1
:1033300022CF13968D919C910E94CD17F6CF692DC7
:103340000E94A50BC1E0DC011696CC936F2DF8010D
:10335000818192810E94A50BDC011696CC933FCF10
:1033600023E0A22EB12CF12CABCF84E0A82EFACF13
:10337000CF92DF92EF920F931F93CF93DF938C0145
:10338000EB016901E42EDC01ED91FC910288F389E7
:10339000E02D199588836E2DA601CE010E949D18FF
:1033A0006B01D801ED91FC910488F589E02D6881CD
:1033B000C8011995B2E0CB16D10459F48B819C81D8
:1033C000DF91CF911F910F91EF90DF90CF900C94F0
:1033D000E116DF91CF911F910F91EF90DF90CF9089
:1033E0000895CB01642FA9010C949D18EF92FF92D0
:1033F0000F931F93CF93DF93E090CD07F090CE070C
:10340000E114F104F9F00091C1071091C207D0E076
:10341000C0E0D8018D919C911197C817D90794F4F9
:103420001296ED91FC91CE01880F991FE80FF91FBC
:103430008591949162E070E0F7011995019711F080
:103440002196E7CF1092CE071092CD0781EC97E03E
:103450000E94D60C21E0DC0116962C938091C107C6
:103460009091C207DF91CF911F910F91FF90EF9044
:103470000C94E40BCF92DF92EF92FF920F931F9385
:10348000CF93DF931F921F92CDB7DEB769834A8334
:10349000880F991F0091F3061091F406000F111F79
:1034A000EDE9F6E09F012D5936402017310714F45D
:1034B0001192F8CF2981FC01E356F94F21838A81CB
:1034C000808360E08091F1060E94DE0610161106EE
:1034D00004F501501109F801E356F94FE080D0904E
:1034E000EF06C090ED0688E0F82E6E2D661F662769
:1034F000661F8C2D0E94DE06EE0C61E08D2D0E9471
:10350000DE0660E08D2D0E94DE06FA94F110EDCF0C
:10351000DDCF61E08091F1060F900F90DF91CF91A8
:103520001F910F91FF90EF90DF90CF900C94DE06EB
:10353000462F2091F3063091F406121613066CF410
:103540008830910551F0FC01E356F94F608B61E042
:10355000680F90E080E00C943A1A08950F931F933F
:10356000CF93DF9302EA12E0D0E0C0E0F80161916E
:103570008F01CE010E94981A2196C830D105B1F76B
:10358000DF91CF911F910F9108950F931F93CF93C8
:10359000DF930AE912E0D0E0C0E0F80161918F0109
:1035A000CE010E94981A2196C830D105B1F7DF915B
:1035B000CF911F910F9108950F931F93CF93DF9396
:1035C00098E0899F80011124D0E0C0E0FE01E00F67
:1035D000F11FE659FD4F6081CE010E94981A219695
:1035E000C830D10599F7DF91CF911F910F910895C0
:1035F000CF92DF92EF92FF920F931F930E94740875
:10360000009164051091650520916605309167056C
:103610006B017C01C01AD10AE20AF30A9701860104
:10362000083E134021053105B0F0609364057093A6
:10363000650580936605909367058091020281116C
:103640008150809302021F910F91FF90EF90DF90C5
:10365000CF900C94DC1A1F910F91FF90EF90DF90A8
:10366000CF900895EF92FF920F931F93CF937C0119
:103670008C0183E0000F111F8A95E1F70355194F64
:10368000C1E0F80111928F0140E06C2FC7010E9448
:103690003A1ACF5FC930A9F7CF911F910F91FF90D0
:1036A000EF9008958091F3069091F406181619068C
:1036B00034F441E06CE090E080E00E943A1A80919E
:1036C000F3069091F4061816190634F441E06AE006
:1036D00090E080E00E943A1A8091F3069091F406FF
:1036E0001816190624F490E080E00C94321B08951B
:1036F000CF93DF93EC0160E08E810E94DE0661E0F3
:103700008E810E94DE0660E08E810E94DE068BE8DC
:1037100091E00197F1F7DF91CF910895CF92DF9279
:10372000EF92FF920F931F93CF93DF936C017C0175
:1037300087E0E80EF11CD0E0C0E0062F10E0B801F1
:103740000C2E02C0759567950A94E2F76170F70137
:1037500081917F010E94DE062196C430D10579F760
:10376000C601DF91CF911F910F91FF90EF90DF90F5
:10377000CF900C94781BCF92DF92EF92FF920F9331
:103780001F93CF93DF93EC01F62E642F8C810E9460
:10379000DE068D818F3F19F060E00E94DE060F2D5E
:1037A00010E08F8584FF25C06E0187E0C80ED11C14
:1037B000F12CE12CB8010E2C02C0759567950A9486
:1037C000E2F76170F60181916F010E94DE06FFEF62
:1037D000EF1AFF0A88E0E816F10461F7CE01DF91E5
:1037E000CF911F910F91FF90EF90DF90CF900C94AD
:1037F000781BB80184E0759567958A95E1F7CE014D
:103800000E948E1B6F2DCE01DF91CF911F910F91E2
:10381000FF90EF90DF90CF900C948E1B41E00E94C0
:10382000BB1B81E090E0089540E00C94BB1BCF935C
:10383000DF93613029F09091AB0A98609093AB0AC6
:103840006093AF0A1092B00A90E49093B10A80930B
:10385000B20A805C8093B30A61E08091A00A0E9462
:10386000E0078091A10A8F3F19F061E00E94E00714
:1038700061E08091A20A0E94E007CCE9DAE09E01B3
:103880002C593A408091AB0A84FD0BC084E090E053
:1038900021962817390744F461E08E810E94E007E1
:1038A000EECF88E090E0F4CF8BE39DE00197F1F755
:1038B00060E08091A00A0E94DE0660E08091A20A8A
:1038C0000E94DE068091A10A8F3F19F060E00E94FD
:1038D000DE066091AB0A64FD41C063E08CE99AE0CA
:1038E0000E948E1BCBE4D6E4CE010197F1F763E092
:1038F0008CE99AE00E948E1B2197F1F763E08CE936
:103900009AE00E948E1B83E592E00197F1F762E056
:103910008CE99AE00E948E1B6091AB0A60628CE990
:103920009AE00E94141C84E08093AC0A6CE08CE95D
:103930009AE00E94141C61E08CE99AE00E94141C39
:103940008BE39FE10197F1F782E08093AD0A66E097
:103950008CE99AE0DF91CF910C94141C60628CE9A1
:103960009AE00E94141C8BE496E40197F1F76091B1
:10397000AB0A60628CE99AE00E94141C83E592E035
:103980000197F1F76091AB0A60628CE99AE00E94BE
:10399000141CC2CF443008F043E0FC0123894217D5
:1039A00010F04FEF420FFC01E40FF11D2489620F6C
:1039B00060680C94141CEF92FF920F931F93CF93A7
:1039C000DF93EC01142FF22E8D859E85FC0160891A
:1039D0006E7F608B68600E94141C8D859E85FC0143
:1039E00060896D7F608B68600E94141C002391F0D9
:1039F0004F2D612F8D859E850E94CA1C8D859E85C9
:103A0000FC016089262FEE2069F02260208B6A601D
:103A10000E94141C80E0DF91CF911F910F91FF90C5
:103A2000EF9008952160208B6960F2CFCF93DF93F0
:103A3000EC0161E08D859E850E94141C8BE39FE163
:103A40000197F1F7AE81BF8190E080E014962C9150
:103A50001497022E000C330B821793076CF49C0111
:103A6000220F331F1296ED91FC911397E20FF31F73
:103A7000118210820196EACFDF91CF910895FB0168
:103A800001900020E9F73197AF01461B570BDC018D
:103A9000ED91FC910280F381E02D1994CF93DF9397
:103AA000FC01448155816081718180EF95E00E9425
:103AB0006609EC0160ED73E080EF95E00E943F1D28
:103AC0008C0F9D1FDF91CF9108958F929F92AF929F
:103AD000BF92EF92FF920F931F93CF93DF93CDB7D7
:103AE000DEB7A1970FB6F894DEBF0FBECDBF7C0145
:103AF000FA01CB0119A2223008F42AE08E010F5DF1
:103B00001F4F822E912CB12CA12CBF01A501940135
:103B10000E94DB47F901CA016A300CF5605DD801EB
:103B20006E938D01232B242B252B79F790E080E0D9
:103B3000109721F0BD01C7010E943F1DA1960FB64D
:103B4000F894DEBF0FBECDBFDF91CF911F910F91D3
:103B5000FF90EF90BF90AF909F908F900895695C19
:103B6000DECFCF92DF92EF92FF920F931F93CF930E
:103B7000DF9377FF1DC06A017B01EC016DE20E94BB
:103B80005F098C0144275527BA014C195D096E095C
:103B90007F092AE0CE010E94651D800F911FDF91F1
:103BA000CF911F910F91FF90EF90DF90CF900895EC
:103BB0002AE0DF91CF911F910F91FF90EF90DF905E
:103BC000CF900C94651DCF93DF93AB01BC0180EFC8
:103BD00095E00E94B11DEC0160ED73E080EF95E08F
:103BE0000E943F1D8C0F9D1FDF91CF9108959B0177
:103BF000FC0140855185052E000C660B770BC90131
:103C00000E94B11D0895FB01DC0118964C9150E013
:103C100070E060E02AE0CF010E94651D0895CF9317
:103C2000DF93BC0180EF95E00E943F1DEC0160ED49
:103C300073E080EF95E00E943F1D8C0F9D1FDF9188
:103C4000CF9108952091EE053091EF052F5F3F4F02
:103C50003093EF052093EE0540918D0650918E062E
:103C60004115510519F04217530734F483ED93E0E1
:103C70000E940F1E80E00895813092401CF085EF75
:103C800093E0F6CF81E008950C943F1D6FE174E05E
:103C90000E94441E90E080E00895CF93DF93EC01F2
:103CA0006CE574E080EF95E00E94441EAE01DD0FEC
:103CB000660B770B80EF95E00E94B11D60ED73E01D
:103CC00080EF95E00E943F1D90E080E0DF91CF9172
:103CD00008958FE590E00E94221E882359F04FE559
:103CE00050E070E060E083E092E00E9491478FE551
:103CF00090E0089590E080E008950E94CA4B0F93F1
:103D00001F93CF93DF93EC0188819981009759F03D
:103D10002A813B812617370730F081E0DF91CF9170
:103D20001F910F9108958B016F5F7F4F0E94E94AA9
:103D3000009759F0998388831B830A832C813D81E6
:103D4000232B59F7FC011082E8CF80E0E7CFEF92F8
:103D5000FF920F931F93CF93DF936115710541F489
:103D600080E0DF91CF911F910F91FF90EF90089528
:103D700041155105B1F07B01EC010C811D81040F4F
:103D8000151FB8010E947F1E882351F328813981B5
:103D90008C819D81B701820F931F0E94E34B1D838D
:103DA0000C8381E0DECFCF93DF93EC018881998192
:103DB000009711F00E94604A198218821D821C82AD
:103DC0001B821A82DF91CF910895CF93DF93EC018C
:103DD00041E050E062E675E00E94A71E811103C039
:103DE000CE010E94D31ECE01DF91CF910895EF92B4
:103DF000FF920F931F93CF93DF93EC0186179707E2
:103E000081F0FB01008111810115110539F0E48079
:103E1000F580B7010E947F1E81110BC0CE010E9468
:103E2000D31ECE01DF91CF911F910F91FF90EF90A4
:103E30000895FD82EC82B801888199810E94E34B4C
:103E4000F0CFEF92FF920F931F93CF93DF93EC018C
:103E50007B01198218821B821A821D821C82FB013F
:103E600001900020E9F731978F01061B170BB8016D
:103E70000E947F1E811109C0CE01DF91CF911F9159
:103E80000F91FF90EF900C94D31E1D830C83B7010C
:103E900088819981DF91CF911F910F91FF90EF90D1
:103EA0000C94E34BFC0180819181009711F00C94FC
:103EB000604A0895EF92FF920F931F93CF93DF9381
:103EC00000D000D0CDB7DEB77B011A8219821C82E8
:103ED0001B821E821D82BC01CE0101960E94F71E2C
:103EE000CE0101960E94E51E8C01F70144815581A7
:103EF000608171810E94A71E811103C0C8010E94C8
:103F0000D31EC8010E944E1DCE0101960E94521F71
:103F100026960FB6F894DEBF0FBECDBFDF91CF91CE
:103F20001F910F91FF90EF900895CF93DF93CDB73E
:103F3000DEB72C970FB6F894DEBF0FBECDBF64E698
:103F400074E0CE0107960E94211F6AE674E0CE015C
:103F500001960E94211FBE01695F7F4FCE0101962D
:103F60000E945A1FCE0101960E94521FCE01079651
:103F70000E94521F85E0809302020E94DC1A0E9478
:103F8000740860936405709365058093660590934B
:103F900067052C960FB6F894DEBF0FBECDBFDF913C
:103FA000CF910895CF93DF93CDB7DEB72C970FB69F
:103FB000F894DEBF0FBECDBF64E674E0CE01079675
:103FC0000E94211F68E774E0CE0101960E94211F24
:103FD000BE01695F7F4FCE0101960E945A1FCE013C
:103FE00001960E94521FCE0107960E94521F4798C9
:103FF0008DE797E00E943806409154025091550297
:10400000052E000C660B770B8DE797E00E94A3113D
:104010004091910750919207609193077091940796
:1040200080918D0790918E07A0918F07B091900796
:10403000481759076A077B0729F08DE797E00E9428
:10404000C810E6CF479A2C960FB6F894DEBF0FBE85
:10405000CDBFDF91CF910895CF93DF93CDB7DEB77A
:104060002C970FB6F894DEBF0FBECDBF64E674E0A8
:10407000CE0107960E94211F65E874E0CE010196EB
:104080000E94211FBE01695F7F4FCE0101960E94F1
:104090005A1FCE0101960E94521FCE0107960E9420
:1040A000521F0E94951F47988DE797E00E9438069F
:1040B0004091520250915302052E000C660B770B73
:1040C0008DE797E00E94A3114091910750919207CC
:1040D000609193077091940780918D0790918E075E
:1040E000A0918F07B0919007481759076A077B077F
:1040F00039F08DE797E00E94C8100E94F81AE4CFCB
:1041000080910202882319F00E94F81AF9CF2C96A8
:104110000FB6F894DEBF0FBECDBFDF91CF910895EB
:10412000CF93DF93CDB7DEB72C970FB6F894DEBFF1
:104130000FBECDBF64E674E0CE0107960E94211F3A
:1041400067E974E0CE0101960E94211FBE01695FFC
:104150007F4FCE0101960E945A1FCE0101960E9408
:10416000521FCE0107960E94521F47988DE797E095
:104170000E9438064FE057E260E070E08DE797E07C
:104180000E94A31189B183FB882780F9882329F035
:104190008DE797E00E94C810F5CF8DE797E00E9469
:1041A000BA118DE797E00E9438068DE797E00E94EC
:1041B000C8104091560250915702052E000C660B14
:1041C000770B8DE797E00E94A311409191075091E2
:1041D0009207609193077091940780918D07909159
:1041E0008E07A0918F07B0919007481759076A076B
:1041F0007B0729F08DE797E00E94C810E6CF479A29
:104200002C960FB6F894DEBF0FBECDBFDF91CF91D5
:1042100008954F925F926F927F928F929F92AF928A
:10422000BF92CF92DF92EF92FF920F931F93CF93A3
:10423000DF93CDB7DEB7C556D1090FB6F894DEBF10
:104240000FBECDBF082F6AEA74E0CE01805A9F4F9F
:104250000E94211F60EB74E0CE0101960E94211F95
:10426000BE01605A7F4FCE0101960E945A1FCE01B7
:1042700001960E94521FCE01805A9F4F0E94521FEA
:10428000CE0101960E94841210E0000F111FE1E0A0
:10429000F0E0EC0FFD1FE00FF11FA781B08528EEC5
:1042A00033E00E94A9494B015C010E9474086B0134
:1042B0007C012B013C014C185D086E087F08CE0183
:1042C0000196481459046A047B0450F50E94841234
:1042D0006C966EAD7FAD6C97072E000C880B990B1A
:1042E0000E9451160E9474082B013C01DC01CB0195
:1042F0008C199D09AE09BF0988159905AA05BB054A
:10430000D0F6CE0101960E9484126A966EAD7FAD02
:104310006A97072E000C880B990B0E945116CBCF81
:104320000E94841268966EAD7FAD6897072E000CD0
:10433000880B990B0E945116CE0101960E9484129F
:10434000E1E0F0E0EC0FFD1FE00FF11FA789B08D59
:1043500028EE33E00E94A9490E944108CB59DF4F63
:104360000FB6F894DEBF0FBECDBFDF91CF911F9186
:104370000F91FF90EF90DF90CF90BF90AF909F9004
:104380008F907F906F905F904F900895CF93DF93C1
:10439000CDB7DEB72C970FB6F894DEBF0FBECDBFFA
:1043A0006AEA74E0CE0107960E94211F69EB74E06F
:1043B000CE0101960E94211FBE01695F7F4FCE0191
:1043C00001960E945A1FCE0101960E94521FCE01F3
:1043D00007960E94521F85E49BE00E9438064FE931
:1043E00056E861E070E085E49BE00E94A31183E061
:1043F0000E94B50621E0892B09F020E0211109C0B7
:1044000085E49BE00E94C81083E00E94B506892BDA
:10441000B9F785E49BE00E94BA116091550B709149
:10442000560B8091570B9091580B0E94E31D85E429
:104430009BE00E94380685E49BE00E94C8102C9601
:104440000FB6F894DEBF0FBECDBFDF91CF910895B8
:10445000CF93DF93CDB7DEB7CF55D1090FB6F89420
:10446000DEBF0FBECDBF60E086E20E94DE0660E0E8
:1044700088E30E94DE060E94C621CE0101960E94BA
:1044800084122C964EAD5FAD2C97052E000C660B5A
:10449000770B89E89BE00E94A31140919D0B5091FE
:1044A0009E0B60919F0B7091A00B8091990B909146
:1044B0009A0BA0919B0BB0919C0B481759076A0768
:1044C0007B0729F089E89BE00E94C810E6CFC15A1B
:1044D000DF4F0FB6F894DEBF0FBECDBFDF91CF9197
:1044E0000895CF93DF93CDB7DEB72C970FB6F8942E
:1044F000DEBF0FBECDBF6AEA74E0CE0107960E9410
:10450000211F6FEB74E0CE0101960E94211FBE01B6
:10451000695F7F4FCE0101960E945A1FCE0101961E
:104520000E94521FCE0107960E94521F89E89BE00D
:104530000E9438064FE956E861E070E089E89BE0A8
:104540000E94A31182E00E94B50621E0892B09F0A8
:1045500020E0211109C089E89BE00E94C81082E098
:104560000E94B506892BB9F789E89BE00E94BA1131
:104570006091990B70919A0B80919B0B90919C0B81
:104580000E94E31D89E89BE00E94380689E89BE0D1
:104590000E94C8102C960FB6F894DEBF0FBECDBF98
:1045A000DF91CF910895EF92FF921F93CF93DF9306
:1045B000CDB7DEB7CF55D1090FB6F894DEBF0FBE29
:1045C000CDBFCE0101960E94841268966EAD7FAD7C
:1045D0006897072E000C880B990B0E9451167E01DC
:1045E0008AE3E80EF11C10E0CE0101960E948412CD
:1045F000F701619171917F01072E000C880B990BD7
:104600000E947216812F0E9409211F5F143061F7EA
:1046100061E089E00E94E00784E690E00E940C07D8
:10462000CE0101960E9484126E968FAD6E970E9405
:1046300049157E01F2E4EF0EF11CCE0101960E94B5
:104640008412F701619171917F01072E000C880B94
:10465000990B0E947216812F0E9409211F5F18304A
:1046600061F7CE0101960E9484122E966EAD7FAD49
:104670002E97072E000C880B990B0E94721661E092
:1046800088E00E94DE0660E070E0CB010E945116D7
:1046900068EE73E080E090E00E94410860E088E00E
:1046A0000E94DE060E9474086093E0057093E105A5
:1046B0008093E2059093E30560E08CE00E94DE06C3
:1046C000CE0101960E94841268966EAD7FAD689708
:1046D000072E000C880B990B0E945116CE010196F3
:1046E0000E94841260966EAD7FAD6097072E000C1D
:1046F000880B990B0E947216CE0101960E948412BB
:104700006D968FAD6D970E9449150E94C6210E943B
:10471000712261E086E20E94DE0661E088E3C15A10
:10472000DF4F0FB6F894DEBF0FBECDBFDF91CF9144
:104730001F91FF90EF900C94DE060C94604A1F933B
:10474000CF93DF9385ED8093BC0080916F059091AE
:104750007005A0917105B09172050796A11DB11D5C
:1047600023E0B695A795979587952A95D1F720913F
:10477000BC0024FD03C01092B70552C040916F05E4
:10478000509170056091710570917205452B462B13
:10479000472B69F30097A105B10541F02AE22A955C
:1047A000F1F700C00197A109B109E1CF80916E0531
:1047B000C1E0C0936D05882399F1D091B8001091A4
:1047C000BA008091BC008A7B8093BC0060E084E1E9
:1047D0000E94DE0660E085E10E94DE061092B705C9
:1047E000C093B9051092B80561E084E10E94DE062D
:1047F00061E085E10E94DE068091B9008E7F8093A2
:10480000B9008091B9008D7F8093B90088E48093CE
:10481000B80085E48093BC001093BA00D093B80030
:10482000DF91CF911F9108950F931F93CF93062F80
:10483000062E000C110BDC011396ED91FC91828D7C
:10484000882341F0C62FB80185EC94E00E94D84B34
:10485000892B09F52091990630919A06F90190E08B
:1048600080E042814017110671F4FC01EE0FFF1F3A
:10487000E80FF91FE20FF31F608171818FEFCF9175
:104880001F910F910895019633968A30910549F74B
:1048900060E070E0F3CF67E070E08FEC8C0FEFCF5B
:1048A000EF92FF920F931F93CF93DF93EC018B0155
:1048B000CA01E881F981E684F784DA01ED91FC917F
:1048C0000284F385E02D1995682FC8010E941424F5
:1048D0009B01482FB801CE01F701DF91CF911F91C5
:1048E0000F91FF90EF9019948F929F92AF92BF9289
:1048F000EF92FF920F931F93CF93DF93EC017B0115
:104900008A01DA01ED91FC910484F585E02DCA015C
:1049100019958D3269F5D801ED91FC910284F385EA
:10492000E02DC8011995D801ED91FC910484F5851D
:10493000E02DC8011995BC0185EC94E00E94D84B8C
:10494000892B09F04BC0E881F9810684F785E02DB9
:1049500024E030E04FEFB701CE01DF91CF911F91FE
:104960000F91FF90EF90BF90AF909F908F90199410
:10497000682F880F770B85EC94E00E94D84B892B29
:10498000B1F180E0F8019485992351F1812C912CAB
:1049900090E8A92E9FEBB92E811106C0812C912C95
:1049A00080E8A82E8FE3B82EC8010E94AE08EA81E5
:1049B000FB813C9605911491A50194010E94BB4690
:1049C0000E94EB48D8016D937C9381E08F83E8814E
:1049D000F9810684F785E02D22E0BBCF81E0D2CFBC
:1049E000E881F9810684F785E02D27E0B2CFE881E0
:1049F000F981A684B784D801ED91FC910284F385F6
:104A0000E02DC8011995682FC7010E9414249B014D
:104A1000482FB701CE01F501A0CF8F929F92AF92A0
:104A2000BF92EF92FF920F931F93CF93DF93EC010E
:104A30007B018A01DA01ED91FC910484F585E02D7A
:104A4000CA0119958D3269F5D801ED91FC91028466
:104A5000F385E02DC8011995D801ED91FC910484EE
:104A6000F585E02DC8011995BC0185EC94E00E9404
:104A7000D84B892B09F04AC0E881F9810684F78573
:104A8000E02D24E030E04FEFB701CE01DF91CF9170
:104A90001F910F91FF90EF90BF90AF909F908F90DC
:104AA0001994682F880F770B85EC94E00E94D84BFF
:104AB000892BA9F180E0F8019485992349F1812C93
:104AC000912C90E8A92E9FEBB92E811106C0812C64
:104AD000912C80E8A82E8FE3B82EC8010E94AE0862
:104AE000EA81FB813C9605911491A50194010E94F5
:104AF000BB460E94F248D8016C9381E08F83E88125
:104B0000F9810684F785E02D22E0BCCF81E0D3CF88
:104B1000E881F9810684F785E02D27E0B3CFE881AD
:104B2000F981A684B784D801ED91FC910284F385C4
:104B3000E02DC8011995682FC7010E9414249B011C
:104B4000482FB701CE01F501A1CFCF93DF9300D05D
:104B50001F92CDB7DEB724E06202B0011124680FC6
:104B6000791F44E050E0CE0101960E94174669810A
:104B70007A818B819C810F900F900F900F90DF9125
:104B8000CF9108958F929F92AF92CF92DF92EF9242
:104B9000FF920F931F93CF93DF93EC01F62EEE81DC
:104BA000FF81808191810E94A525472F770F550BAA
:104BB000062E000C770B8A01090F111D97FD1A951F
:104BC000015011099B01280F311D87FD3A95215095
:104BD0003109E881F9811F920284F385E02D882450
:104BE0008394912CA12CD12CC12C90E2E92ECE01E2
:104BF0001995E881F9810288F389E02D2F2D40E095
:104C000060E0CE011995EE81FF816F2D660F770B65
:104C100082819381680F791FFB01118210820F90AE
:104C2000DF91CF911F910F91FF90EF90DF90CF9088
:104C3000AF909F908F900895EF92FF920F931F93E4
:104C4000CF93DF93EC01F62EE42EE881F981028800
:104C5000F389E02D242F462F60E0199510E000E045
:104C6000EE81FF8160E0808191810E94A525082E60
:104C7000000C990B081719073CF460E2CE010E9462
:104C80005F090F5F1F4FECCFE881F9810288F3893C
:104C9000E02D2E2D4F2D60E0CE01DF91CF911F91A1
:104CA0000F91FF90EF901994FC01808191810E94F7
:104CB000A525892F08952F923F924F925F926F9270
:104CC0007F928F929F92AF92BF92CF92EF92FF927C
:104CD0000F931F93CF93DF93EC012B015A01122FF7
:104CE000E881F9810488F589E02D00E021E030E0D9
:104CF00040E061E070E0199560E170E0C5010E945C
:104D0000090D882309F45DC0912C812CD501ED910A
:104D1000FC910190F081E02DC5011995082E000C41
:104D2000990B881699060CF0D6C0D501ED91FC912F
:104D30000088F189E02D682DC50119953C01FC0121
:104D400024813581E881F9810488F589E02D00E02E
:104D500040E061E070E0CE011995D30114962D91E9
:104D60003C91E881F9810688F789E02DE12E40E049
:104D7000682DCE011995F30124813581E881F981EF
:104D80000488F589E02D40E061E070E0CE011995DE
:104D9000D301ED91FC9124803580EE81FF81612F5C
:104DA000808191810E94A525C12EE82E082D9E01AB
:104DB00040E0B201C301F1011995FFEF8F1A9F0A7C
:104DC000A5CFE881F9810088F189E02D612FCE011E
:104DD0001995E881F9810288F389E02D212F40E0BF
:104DE00060E0CE011995312C612F8E819F810E9448
:104DF000542638160CF06FC0D501ED91FC9101904E
:104E0000F081E02DC501199538160CF064C0D5016C
:104E1000ED91FC910088F189E02D632DC501199574
:104E20004C01FC01E480F580E881F9810484F5857A
:104E3000E02DC12C00E030E020E0412F632DCE01B9
:104E40001995E881F9810288F389E02D212F432DFE
:104E500060E0CE011995D40114962D913C91E88122
:104E6000F9810488F589E02D40E061E070E0CE0131
:104E70001995F40124813581E881F9810688F78943
:104E8000E02DE12E40E0632DCE011995D40114965A
:104E90002D913C91E881F9810488F589E02D40E06D
:104EA00061E070E0CE011995D401ED91FC91648030
:104EB0007580EE81FF81612F808191810E94A525FF
:104EC000C12EE82E032D9E0140E0B201C401F30182
:104ED0001995339489CFDF91CF911F910F91FF9056
:104EE000EF90CF90BF90AF909F908F907F906F90FA
:104EF0005F904F903F902F9008952F923F924F9246
:104F00005F926F927F928F929F92AF92BF92CF9259
:104F1000DF92EF92FF920F931F93CF93DF93CDB762
:104F2000DEB763970FB6F894DEBF0FBECDBF9B8B85
:104F30008A8B2B01142FDB011396ED91FC9165E018
:104F400070E0868597850E94090D082FF201838104
:104F50009481DC01011154C01E968D919C91DC015D
:104F6000ED91FC910680F781E02D20E04A895B8974
:104F7000B2011995882309F1D2011396ED91FC91A4
:104F8000A684B784D501ED91FC9184809580AA898F
:104F9000BB891696ED91FC91612F808191810E94D1
:104FA000A525F20163817481C12EE82E00812A8932
:104FB0003B8941E0C501F4011995F201818192819B
:104FC000AA89BB891B969C938E931A9780E063965F
:104FD0000FB6F894DEBF0FBECDBFDF91CF911F910A
:104FE0000F91FF90EF90DF90CF90BF90AF909F9088
:104FF0008F907F906F905F904F903F902F9008958B
:105000001796AC90AA2031F00E94D60C0E94FC0C9E
:105010008111AA940A2C000CBB08AA89BB8914969A
:10502000ED91FC91EA0DFB1D608060E170E0F20102
:10503000818192810E94090D382ED2011196ED9145
:10504000FC911297828193810896FC0125913491FD
:1050500021FD0BC01396ED91FC917084772099F09F
:10506000FC018591949182FD0DC031100BC0612F20
:10507000EA89FB89868197810E945426772473945C
:1050800082300CF4712CD20111968D919C910E946A
:10509000FC0C811129C0C72CD12CEA89FB8984859D
:1050A000882309F48BC0D201FC900680F781E02DA3
:1050B000612F808191810E94A525AA89BB891496C0
:1050C000ED91FC91EA0DFB1D2F2D0F2C000C330BE5
:1050D000672F690F062E000C770B6C197D09C9012B
:1050E0000E948D49F81AF082EA89FB89408540FDCB
:1050F00034C00480F581E02DEA0DFB1D808186110E
:105100002CC0AA89BB891A968D919C911B97F2019C
:10511000218132818217930701F51696ED91FC915A
:105120000280F381E02D212F220F330BE20FF31FBA
:10513000208131812415350581F400E041FD0DC049
:10514000DC01ED91FC910680F781E02D00E021E08B
:105150004A895B89B2011995082FD2011196ED9108
:10516000FC91D680D02A29F4EA89FB89808581FFC9
:105170002DCFAA89BB891696ED91FC91612F808174
:1051800091810E94A525982E711061C1F201818143
:105190009281DC01ED91FC910680F781E02D00E029
:1051A00020E04A895B89B201199581113FC1D11074
:1051B00040C1332009F4A1C11982A8C1F201808144
:1051C0004601880E911C87FD9A94AA89BB89149682
:1051D000ED91FC911597EA0DFB1DE0800E2C000C63
:1051E000FF08612F16968D919C910E945426E80E1F
:1051F000F11C87FDFA948E149F045CF0AA89BB8988
:105200001496ED91FC91EA0DFB1D80818F5F8083E8
:10521000D5CFAA89BB891496ED91FC91EA0DFB1DAF
:105220009081F201808189175CF4AA89BB89149668
:10523000ED91FC91EA0DFB1D808181508083E9CFC7
:1052400021813281992309F44FCFC9010E94AC0B0F
:10525000E82E880FFF08AA89BB891496ED91FC916E
:105260001597EA0DFB1D8081E81AF10887FDF3947C
:10527000612F16968D919C910E945426082E000C49
:10528000990B8C199D09E816F9067CF22DCF332075
:1052900009F433C162E675E08A899B890E94441E45
:1052A0008BCF612FEA89FB89868197810E945426E2
:1052B000082E000C990B29853A85821B930BE81662
:1052C000F9060CF44AC179CEDC01ED91FC9106801F
:1052D000F781E02D00E020E04A895B89B201199551
:1052E000811158C1839432C1332009F484C02A81CA
:1052F0003B816216730609F07EC063ED74E08A8913
:105300009B890E94441EF92CEE24EA94EF0CF501CF
:1053100024813581AA89BB89ED91FC91119704887C
:10532000F589E02D0C81422D61E070E0CD011995E9
:105330001E140CF5F20163817481D501ED91FC918D
:105340000480F581E02DC12E082D2A893B89422D4C
:10535000C501199518167CF4332069F0EA81FB81A8
:1053600061ED74E06E167F0611F062ED73E08A89DC
:105370009B890E94441E2A813B816216730609F0B4
:10538000B1CFAA89BB891696ED91FC918481082E34
:10539000000C990BEE85FF85E817F9070CF0A2CFFA
:1053A000C5010E94BB0C882349F0D5011296ED91EE
:1053B000FC9132968591949184FF1FC0AA89BB8984
:1053C0001696ED91FC910280F381E02D2F813885B6
:1053D000E20FF31F80819181892B09F483CFAA8981
:1053E000BB89ED91FC9111970088F189E02D6B85C7
:1053F000CD01199577CFF92C40C1D20113966D914B
:105400007C912B85A5018A899B890E945B26AA89AC
:10541000BB891696ED91FC910280F381E02D2F81DE
:105420003885E20FF31F518240825CCFDD2009F402
:105430002ECF31102FCFAA89BB89ED91FC91119706
:105440000088F189E02D612FCD01199556C0D1104A
:1054500027C131101FCFAA89BB89ED91FC9111970B
:105460000488F589E02D00E021E030E040E065E0CF
:1054700070E0CD011995AA89BB89ED91FC91119736
:105480000484F585E02DC12CEE24E394F12C25E075
:1054900030E0412F60E0CD011995AA89BB89ED91DB
:1054A000FC9111970488F589E02D21E030E041E07E
:1054B00065E070E0CD011995AA89BB89ED91FC9159
:1054C00011970288F389E02D212F40E060E0CD01A3
:1054D0001995F2018181928163817481DC01ED91E2
:1054E000FC910480F581E02DC12E4EEFE42EE90CF5
:1054F0000FEF2A893B8941E01995EA89FB8984816C
:105500009581A80EB91ED501BC91B983812F012EBA
:10551000000C990B0196FC01EE0FFF1FF887EF833B
:10552000812C272D30E03A872987A9810A2E000C8B
:10553000BB0BBD87AC879F878E87B1E0B10FBB8760
:10554000E981EF5CE88BFDEFF90DF98BE82C082C75
:10555000000CFF08332009F4A4CE6C847D846E0C0B
:105560007F1CD20111968D919C910E94AC0B082E4C
:10557000000C990B681679060CF01FCD6981680D37
:10558000D20111968D919C910E94A50B5C01DD20AA
:1055900009F49ACEE985FA85EE0DFF1DFE83ED83B1
:1055A000D2018C91E82F880FFF0BFB83EA83222422
:1055B00023946E167F0609F0212CF1E0FC83D201C2
:1055C00011968D919C918A159B0509F01C823110D2
:1055D00020C0F501E480F580AA89BB89ED91FC919A
:1055E00011970484F585E02DC12C022D30E020E0D8
:1055F000412F6D81CD011995AA89BB89ED91FC914F
:1056000011970288F389E02D212F4D8160E0CD01B3
:105610001995F50124813581AA89BB89ED91FC9109
:1056200011970488F589E02D0C81422D61E070E02E
:10563000CD011995D2011396ED91FC91828D8823AD
:1056400009F452CE311053CEEA89FB89808582FF5E
:10565000D2CE0889080D6BE5CF010E945F090A339D
:105660000CF00DE2602F8A899B890E945F096DE52D
:105670008A899B890E945F09F988D50114962D912A
:105680003C91AA89BB89ED91FC9111970688F78915
:10569000E02DE12E0C81422D6D81CD01199534CE86
:1056A0003110F8CDAA89BB89ED91FC911197008842
:1056B000F189E02D612FCD011995CDCE2F923F922A
:1056C0004F925F926F927F928F929F92AF92BF9212
:1056D000CF92DF92EF92FF920F931F93CF93DF93BE
:1056E00000D01F92CDB7DEB73C016B01B12CA12CCD
:1056F000D3018D919C911197A816B9060CF053C156
:105700001296ED91FC91C501880F991FE80FF91FC2
:10571000E590F490F7018085918581729927892B16
:10572000A1F482859385892B09F09EC0D60113963A
:105730000D90BC91A02DBA83A9830E947408E981C1
:10574000FA81648B758B868B978BD60113960D909F
:10575000BC91A02DBA83A983CD010E94D60CE9810A
:10576000FA810781002E000C110B0E94FC0C88238B
:1057700011F001501109D6011396ED91FC91B5E09D
:10578000B09FC001B19F900D112444805580480EF8
:10579000591ED7011696ED91FC91B481EB2F0E2E78
:1057A000000CFF0B3197FC83EB830E171F0714F4DB
:1057B0001C830B83D70118968C9183FF08C0EB8163
:1057C000FC81309709F499C03197FC83EB83912CCD
:1057D000812C98018B819C81281B390B3A8329836A
:1057E000AB81BC818A169B060CF087C0F6016381F1
:1057F000748189819A81880D991DF5E0F89F800157
:10580000F99F100D1124DB0114968D919C91080FC6
:10581000191F1401220C331CF701808581FF0DC074
:105820000680F781E02D0280F381E02DE20DF31D6B
:10583000808191810817190799F0D80111964D912F
:105840005C91282DC7010E945B26D7011696ED9129
:10585000FC910280F381E02DE20DF31D11830083A2
:10586000BFEF8B1A9B0ABCCFD60111968D919C91EC
:10587000DC01ED91FC910680F781E02D00E021E054
:10588000A701B6011995811151CFD6011396ED915B
:10589000FC918189882369F1808D918D892B49F153
:1058A0000E947408F6010380F481E02DFA83E983F5
:1058B0000489158926893789601B710B820B930B2C
:1058C00028EE33E040E050E00E94DB47A981BA8136
:1058D00058968D919C91B0E0A0E082179307A407A1
:1058E000B50738F4E981FA8162857385CF010E949A
:1058F00093163FEFA31AB30AFBCED7011696ED918C
:10590000FC91BB81B5834B2FB201C7010E947D275B
:105910000B811C81000F111FD7011696ED91FC9190
:105920000280F381E02DE00FF11FD182C082EB8174
:10593000FC813296FA83E983D7011696ED91FC91AA
:1059400017978481082E000C990B29813A8128171A
:1059500039077CF6480134E0830E911C0280F38104
:10596000E02DE80DF91D80819181892B99F0ED9151
:10597000FC910088F189E02D6981C7011995D70153
:105980001696ED91FC9182819381880E991EF40107
:105990001182108229813A812F5F3F4F3A832983F8
:1059A0000E5F1F4FC9CF1A821982D3018D919C912E
:1059B0001197E981FA81E817F907ECF4CF01880F14
:1059C000991F1296ED91FC91E80FF91F45915491A2
:1059D000D60111968D919C91DC01ED91FC91028094
:1059E000F381E02D21E0B6011995E981FA81319624
:1059F000FA83E983DACF80E00F900F900F900F9039
:105A0000DF91CF911F910F91FF90EF90DF90CF909A
:105A1000BF90AF909F908F907F906F905F904F90CE
:105A20003F902F900895AF92BF92CF92EF92FF9246
:105A30000F931F93CF93DF938C015B01E9014E2DF0
:105A4000DC011296ED91FC91349665917491E88198
:105A5000F9810084F185E02DC9011995F82ED8014E
:105A60001296ED91FC9132968591949185719927CA
:105A70004597A1F4F501878164817581F5E08F0276
:105A8000600D711D1124DB0111968D919C910817F9
:105A9000190779F44C2DCE010E947D278F2DDF91BF
:105AA000CF911F910F91FF90EF90CF90BF90AF904B
:105AB00008952C2DA801B501CE010E945B26EECFE2
:105AC0006F927F928F929F92AF92BF92CF92DF920E
:105AD000EF92FF920F931F93CF93DF93EC014B0153
